:04005A007F4EDFFEF8
:01005E00227F
:102F52007D027C00ED1D70011C144C70F7EF1F7098
:062F6200011E144E70EA8E
:012F68002246
:102F69007D0C7C00ED1D70011C144C70F7EF1F7077
:062F7900011E144E70EA77
:012F7F00222F
:102F80007D187C00ED1D70011C144C70F7EF1F7054
:062F9000011E144E70EA60
:012F96002218
:102F97007D607C09ED1D70011C144C70F7EF1F70EC
:062FA700011E144E70EA49
:012FAD002201
:1022BC00EFD3940740037F0122121DC0FED3940379
:1022CC0040037F0222EF7041EE700B900001121D53
:1022DC00D9F452935294121DC0B4010B9000011208
:1022EC001DD94293F45294121DC0FEB4020A900000
:1022FC0001121DD942934294EEB4030D90000112C9
:10230C001DD9FEF45293EE4294EF64017043121DFA
:10231C00C0FE700B900001121DD9F452915292EE36
:10232C00B4010B900001121DD94291F45292121D6E
:10233C00C0B4020A900001121DD942914292121DA2
:10234C00C0B4030D900001121DD9FEF45291EE425F
:10235C0092EF64027043121DC0FE700B90000112CC
:10236C001DD9F452955296EEB4010B900001121D3A
:10237C00D94295F45296121DC0B4020A9000011273
:10238C001DD942954296121DC0B4030D9000011246
:10239C001DD9FEF45295EE4296EF64037043121D64
:1023AC00C0FE700B900001121DD9F452B152B2EE66
:1023BC00B4010B900001121DD942B1F452B2121D9E
:1023CC00C0B4020A900001121DD942B142B2121DD2
:1023DC00C0B4030D900001121DD9FEF452B1EE42AF
:1023EC00B2EF64047043121DC0FE700B900001121A
:1023FC001DD9F452B352B4EEB4010B900001121D6E
:10240C00D942B3F452B4121DC0B4020A90000112A6
:10241C001DD942B342B4121DC0B4030D9000011279
:10242C001DD9FEF452B3EE42B4EF64057043121D95
:10243C00C0FE700B900001121DD9F452C952CAEEA5
:10244C00B4010B900001121DD942C9F452CA121DDD
:10245C00C0B4020A900001121DD942C942CA121D11
:10246C00C0B4030D900001121DD9FEF452C9EE4206
:10247C00CAEF64067043121DC0FE700B900001126F
:10248C001DD9F452CB52CCEEB4010B900001121DAD
:10249C00D942CBF452CC121DC0B4020A90000112E6
:1024AC001DD942CB42CC121DC0B4030D90000112B9
:1024BC001DD9FEF452CBEE42CCEF64077043121DD3
:1024CC00C0FF700B900001121DD9F452E152E2EFE3
:1024DC00B4010B900001121DD942E1F452E2121D1D
:1024EC00C0B4020A900001121DD942E142E2121D51
:1024FC00C0B4030D900001121DD9FFF452E1EF425C
:04250C00E27F002248
:03001B0002005F81
:03005F00B2EE32CC
:0300630002009602
:03009600B2ED3296
:03009B0002009EC2
:03009E00B2EC328F
:0300A300023031F7
:03303100B2EB32CD
:101FC400AD07EDD3940440037F0122ED60030220AA
:101FD40086C28C900002121DD9B40104D2A98002D9
:101FE400C2A9900001121DD9FED3940340037F02BD
:101FF40022EE700553B7FDC2B9900001121DD9B489
:10200400010553B7FDD2B9900001121DD9FFB402E6
:102014000543B702C2B9EFB4030543B702D2B912FC
:102024001DC0FEC3940340037F0222E58954FC4E85
:10203400F589900003121DD9FFB40103538E7FEF7D
:102044007003438E80EFB4020543890480035389EF
:10205400FB900004121DD9B40105438F0180035382
:102064008FFE900005121E32E5F0F58C90000512EB
:102074001E32F58A900007121DD9B40102D28C7F5A
:102084000022ED64016003022144C28E900002121A
:102094001DD9B40104D2AB8002C2AB900001121D61
:1020A400D9FED3940340037F0222EE700553B7F7A1
:1020B400C2BB900001121DD9B4010553B7F7D2BBBE
:1020C400900001121DD9FFB4020543B708C2BBEF4B
:1020D400B4030543B708D2BB121DC0FEC39403402A
:1020E400037F0222EEC454F0FFE58954CF4FF589F3
:1020F400900003121DD9FFB40103538EBFEF700388
:10210400438E40EFB4020543894080035389BF9056
:102114000004121DD9B40105438F028003538FFDBF
:10212400900005121E32E5F0F58D900005121E3266
:10213400F58B900007121DD9B40102D28E7F0022C4
:10214400ED64027078538EEF900002121DD9B40131
:102154000543AF04800353AFFB900003121DD9FE67
:10216400D3940240037F0222EEB40103538EFB900A
:102174000003121DD97003438E04900003121DD96D
:10218400B40205438E088003538EF7900004121D99
:10219400D9B40105438F048003538FFB90000512CB
:1021A4001E32E5F0F5D6900005121E32F5D79000E8
:1021B40007121DD9B40103438E107F0022ED64037E
:1021C400707853D1F7900002121DD9B4010543AFC2
:1021D40020800353AFDF900003121DD9FED3940275
:1021E40040037F0222EEB4010353D1FD9000031299
:1021F4001DD9700343D102900003121DD9B4020506
:1022040043D104800353D1FB900004121DD9B401BF
:102214000543D101800353D1FE900005121E32E51F
:10222400F0F5D4900005121E32F5D5900007121D6A
:10223400D9B4010343D1087F0022ED6404707653BE
:10224400D17F900002121DD9B4010543AF40800331
:1022540053AFBF900003121DD9FED3940240037FF5
:102264000222EEB4010353D1DF900003121DD97092
:102274000343D120900003121DD9B4020543D14079
:10228400800353D1BF900004121DD9B4010543D17A
:1022940010800353D1EF900005121E32FDACF0EC18
:1022A400F5D2AF058FD3900007121DD9B4010343B3
:0822B400D1807F00227F02228D
:0C2F3A0042044D000044044F0000000061
:102E2900E4900400F0A304F0A3F0E4A3F0A3F0A35A
:102E390074A2F0A37440F0A37401F07B017A0479C1
:092E490000E4FF121FC4EF70F257
:012E5200225D
:03303400022E2940
:03000B000227BD0C
:1027BD00C0E0C0F0C083C082C0D075D000C000C0E2
:0D27CD0001C002C003C004C005C006C00763
:1027DA0090044EE004F0700690044DE004F0C390BB
:1027EA00044EE094E890044DE09403406CE4F0A3B6
:1027FA00F0A3E0FCA3E0FDA3E0FEA3E02401FFE4D4
:10280A003EFEE43DFDE43CFC90044F121F87900419
:10281A004FE0FCA3E0FDA3E0FEA3E0FFEC4D4E4F2A
:10282A00602D90044FE0F8A3E0F9A3E0FAA3E0FBDF
:10283A00900444E0FCA3E0FDA3E0FEA3E0FF121E27
:10284A00F5900449121F879004487401F0800A9099
:09285A000444121F930000000069
:10286300D007D006D005D004D003D002D001D000C9
:0B287300D0D0D082D083D0F0D0E03273
:102A8300122F2012287E123034122DD0122EE8D2AB
:102A9300AF900444E0FCA3E0FDA3E0FEA3E0240127
:102AA300FFE43EFEE43DFDE43CFC900444121F873A
:102AB300900448E0B4012A900449E0FCA3E0FDA39C
:102AC300E0FEA3E0FF900402121F87900406741037
:102AD300F0A37401F07D107F10122B14E4900448CE
:102AE300F0900448E07025900444E0FCA3E0FDA3CB
:102AF300E0FEA3E0FF900402121F87900406741007
:102B0300F0A37401F0E4FD7F30122B14122EE88041
:012B13008041
:102F20009004007403F0A37460F07B017A047900CC
:092F30007F041222BCD2C5D2C6F6
:012F39002275
:0F3013006672616D653A00663A302020487A0097
:0B2F4600410448004404440000000067
:102DD0007BFF7A3079139004057410F0A37401F02E
:102DE000E4FDFF1229DC7BFF7A30791A9004057428
:0D2DF00010F0A37401F07D10E4FF0229DC57
:1000A600000000000000000000000000000000004A
:1000B6003F4000000000000000003000400030001B
:1000C6004000000009000BC03D000BC03D000900C8
:1000D60018C024407FE0224031800000180024C070
:1000E6001B000D803240018003801C4027401C808D
:1000F6000740004010006000000000000000000003
:100106000000000000001F8020404020000040202A
:1001160020401F8000000000090006001F80060026
:1001260009000000040004003F80040004000000F1
:100136000010006000000000000000000400040041
:10014600040004000400000000000040000000005D
:1001560000000000002001C006003800400000003A
:100166001F802040204020401F80000000001040DB
:100176003FC000400000000018C02140224024403B
:100186001840000010802040244024401B800000BE
:1001960002000D0011003FC0014000003C802440D9
:1001A60024402440238000001F8024402440344003
:1001B600038000003000200027C038002000000027
:1001C6001B802440244024401B8000001C0022C0C9
:1001D600224022401F80000000000000084000006E
:1001E60000000000000000000460000000000000A5
:1001F600000004000A0011002080404009000900A8
:10020600090009000900000000004040208011009C
:100216000A000400180020002340240018000000F3
:100226001F802040274029401F400000004007C093
:1002360039000F0001C0004020403FC02440244048
:100246001B8000001F80204020402040308000009E
:1002560020403FC0204020401F80000020403FC07B
:1002660024402E4030C0000020403FC024402E00D5
:10027600300000000F001080204022403380020032
:1002860020403FC0040004003FC0204020402040E2
:100296003FC02040204000000060202020203FC0BA
:1002A6002000200020403FC024400B0030C02040EA
:1002B60020403FC020400040004000C03FC03C00FE
:1002C60003C03C003FC0000020403FC00C4023005C
:1002D6003FC020001F802040204020401F8000009B
:1002E60020403FC024402400180000001F80214009
:1002F600214020E01FA0000020403FC024402600EF
:1003060019C0004018C0244024402240318000001B
:10031600300020403FC020403000000020003F80D9
:10032600004000403F80200020003E0001C0070042
:1003360038002000380007C03C0007C03800000025
:10034600204039C0060039C0204000002000384057
:1003560007C0384020000000304021C02640384009
:1003660020C00000000000007FE040204020000088
:10037600000070000C0003800040000000004020D8
:1003860040207FE000000000000020004000200028
:1003960000000000001000100010001000100010F7
:1003A6000000000040000000000000000000028085
:1003B6000540054003C0004020003FC00440044003
:1003C6000380000000000380044004400640000053
:1003D60000000380044024403FC00040000003802A
:1003E6000540054003400000000004401FC02440B3
:1003F60024402000000002E005500550065004206D
:1004060020403FC00440040003C0004000000440F8
:1004160027C000400000000000100010041027E074
:100426000000000020403FC00140070004C0044017
:10043600204020403FC000400040000007C00400AC
:1004460007C0040003C00000044007C004400400C5
:1004560003C0004000000380044004400380000005
:10046600041007F0045004400380000000000380DD
:100476000440045007F00010044007C00240040086
:1004860004000000000006400540054004C00000CE
:10049600000004001F8004400040000004000780A4
:1004A6000040044007C000400400070004C001806B
:1004B60006000400060001C0070001C00600000097
:1004C600044006C0010006C00440000004100710E6
:1004D60004E00180060004000000044005C0064058
:1004E600044000000000000004007BE04020000003
:1004F600000000000000FFF00000000000004020A7
:100506007BE0040000000000400080004000200066
:100516002000400000000000000000000000000075
:10052600000000000000000000001FCC000C0000CE
:1005360000000000000008003000600008003000E5
:1005460060000000022003FC1E20022003FC1E2087
:100556000220000000000E1811043FFF10840C78E2
:10056600000000000F0010840F3800C007781884C0
:100576000078000000780F8410C411240E9800E45F
:1005860000840008080068007000000000000000F9
:100596000000000000000000000007E0181820041A
:1005A60040020000000040022004181807E0000086
:1005B600000000000240024001800FF0018002406E
:1005C600024000000080008000800FF8008000805C
:1005D600008000000001000D000E00000000000079
:1005E6000000000000000080008000800080008085
:1005F600008000800000000C000C000000000000DD
:1006060000000000000000060018006001800600DF
:1006160018002000000007F008081004100408085D
:1006260007F000000000080408041FFC0004000492
:100636000000000000000E0C101410241044118459
:100646000E0C000000000C1810041104110412888E
:100656000C700000000000E00320042408241FFCA6
:100666000024000000001F98108411041104108853
:1006760010700000000007F00888110411041888A3
:100686000070000000001C00100010FC13001C008D
:100696001000000000000E3811441084108411442C
:1006A6000E38000000000700088C1044104408882B
:1006B60007F00000000000000000030C030C00001F
:1006C600000000000000000000010106000000001C
:1006D600000000000000008001400220041008080D
:1006E6001004000002200220022002200220022024
:1006F6000220000000001004080804100220014037
:100706000080000000000E001200100C106C10801B
:100716000F00000003E00C1813E4142417C4082883
:1007260007D000000004003C03C41C40074000E45E
:10073600001C000410041FFC1104110411040E888F
:100746000070000003E00C181004100410041008D8
:100756001C10000010041FFC1004100410040808EC
:1007660007F0000010041FFC1104110417C4100444
:100776000818000010041FFC1104110017C0100017
:100786000800000003E00C181004100410441C7844
:100796000040000010041FFC1084008000801084BC
:1007A6001FFC10040000100410041FFC10041004A9
:1007B6000000000000030001100110011FFE1000E0
:1007C6001000000010041FFC110403801464181CA0
:1007D6001004000010041FFC1004000400040004B0
:1007E600000C000010041FFC1F0000FC1F001FFC73
:1007F6001004000010041FFC0C04030000E0101895
:100806001FFC100007F00808100410041004080864
:1008160007F0000010041FFC108410801080108068
:100826000F00000007F0081810241024101C080AF6
:1008360007F2000010041FFC1104110011C0113052
:100846000E0C000400000E1C1104108410841044C9
:100856001C3800001800100010041FFC10041000C3
:100866001800000010001FF8100400040004100413
:100876001FF8100010001E0011E0001C007013800D
:100886001C0010001FC0103C00E01F0000E0103CE0
:100896001FC000001004180C163401C001C0163425
:1008A600180C100410001C00130400FC13041C0098
:1008B600100000000804101C1064108413041C04AB
:1008C600101800000000000000007FFE40024002F9
:1008D60040020000000030000C0003800060001C95
:1008E6000003000000004002400240027FFE0000BC
:1008F6000000000000000000200040004000400012
:1009060020000000000100010001000100010001BB
:10091600000100010000400040002000000000002F
:100926000000000000000098012401440144014435
:1009360000FC000410001FFC00880104010400886C
:10094600007000000000007000880104010401042A
:1009560000880000000000700088010401041108EE
:100966001FFC0004000000F8014401440144014456
:1009760000C800000000010401040FFC110411046A
:1009860011001800000000D601290129012901C91A
:100996000106000010041FFC008401000100010490
:1009A60000FC000400000104190419FC0004000402
:1009B600000000000000000300010101190119FEFA
:1009C6000000000010041FFC0024004001B4010CCC
:1009D600010400000000100410041FFC00040004C1
:1009E60000000000010401FC0104010001FC0104F7
:1009F600010000FC010401FC008401000100010467
:100A060000FC0004000000F80104010401040104D4
:100A160000F80000010101FF0085010401040088BF
:100A26000070000000000070008801040104010548
:100A360001FF00010104010401FC0084010401001E
:100A460001800000000000CC0124012401240124BF
:100A56000198000000000100010007F801040104EC
:100A660000000000010001F8000400040004010871
:100A760001FC0004010001800170000C00100160FF
:100A86000180010001F0010C003001C00030010CB2
:100A960001F0010000000104018C00740170018C5A
:100AA60001040000010101810171000E00180160BE
:100AB6000180010000000184010C0134014401841D
:100AC600010C0000000000000000000001003EFCD8
:100AD600400240020000000000000000FFFF00008E
:100AE600000000000000400240023EFC0100000041
:100AF6000000000000006000800080004000400010
:100B0600200020000000000000000000000000009F
:100B160000000000000000000000000000000000CF
:100B260000000000000000000000000000000000BF
:100B3600000000000000000F80380FFE380F8038DC
:100B4600000000000000000000000000000000009F
:100B560000000100000600000C0000380000310013
:100B6600000600000C000038000030000000000005
:100B76000000000061800067F807F98000618000CE
:100B860061800061800061800067F807F98000617C
:100B96008000000000000000000001C0E003E0F05B
:100BA6000630080418081FFFFE040E080787F00326
:100BB60081E000000000000001F000060C000404C3
:100BC60008060C7001F9C0000E00003BE000EC18AE
:100BD600070808040C180003E00000000001E0000C
:100BE60007F003F818041C0804170807E1D003C02F
:100BF600E00023B0003C08002008000010000000C0
:100C06000000000100003100003200001C0000005E
:100C160000000000000000000000000000000000CE
:100C260000000000000000000000000000000000BE
:100C3600000000007F0001FFC00780F00C001810C4
:100C46000004200002000000000000200002100046
:100C5600040C00180780F001FFC0007F00000000B0
:100C6600000000000000000000000000000000007E
:100C76004200006600006600003C0000180003FF0A
:100C8600C0001800003C000066000066000042003C
:100C9600000000000800000800000800000800002E
:100CA600080001FFC0000800000800000800000856
:100CB60000000800000000000001000031000032C2
:100CC60000001C0000000000000000000000000002
:100CD60000000000000000000000000008000008FE
:100CE60000000800000800000800000800000800D6
:100CF60000080000080000080000000000000000D6
:100D06000000000038000038000038000000000035
:100D160000000000000000000000000000000000CD
:100D260000000000000600001C00007000018000AA
:100D36000E0000380000C0000700001C0000300054
:100D460000000000000000007F8001FFE0038070CB
:100D56000600180400080400080600180380700145
:100D6600FFE0007F8000000000000000000001009E
:100D76000801000801000803FFF807FFF800000853
:100D8600000008000008000000000000000000014C
:100D9600C03802C05804009804011804021804045C
:100DA60018061C1803F81801E0F8000000000000FF
:100DB60000000001C0E003C0F004000804080804B5
:100DC600080806180803F41801E7F00001E000001F
:100DD60000000000000000000300000D00001100EC
:100DE60000610000810803010807FFF80FFFF80003
:100DF60001080001080000000000000000E007FCF8
:100E0600D006080806100806100806100806183846
:100E1600060FF00607C000000000000000000000FA
:100E26003F8001FFE0038430020818041008041014
:100E360008041008071810030FF00007C000000090
:100E460000000000000003C00007000006000006C6
:100E560000F80607F806180006E00007000006007E
:100E66000000000000000001E1E003F7F006341086
:100E7600041808041808040C08040C0806161803BD
:100E8600F3F001C1E000000000000000F80003FCE0
:100E96003003063804020804020804020804041099
:100EA6000308F001FFC0007F000000000000000002
:100EB6000000000000000000000000007038007014
:100EC600380070380000000000000000000000003C
:100ED600000000000000000000000000000000000C
:100EE600301A00301C000000000000000000000066
:100EF60000000000000000000000000800001400D0
:100F06000022000041000080800100400200200411
:100F16000010080008000000000000002100002169
:100F26000000210000210000210000210000210016
:100F36000021000021000021000000000000000048
:100F46000000080008040010020020010040008094
:100F5600800041000022000014000008000000008C
:100F660000000003C00004C00004000008003808A8
:100F76000F380808380810000C300007E00003C0DE
:100F860000000000000000003F8000FFE0038070CA
:100F9600020F1006708804C088048308047F880244
:100FA600C09003012000FE40000008000018000168
:100FB600F8003E0801C20007020007E20000FE003A
:100FC600001FC80001F800003800000804000807E8
:100FD600FFF807FFF80408080408080408080408CE
:100FE6000806180803F41801E7F00001E000000005
:100FF600000000003F8001FFE0038070020018043B
:1010060000080400080400080400100600200780F9
:10101600C000000004000807FFF807FFF8040008F6
:101026000400080400080400180200100380700180
:10103600FFE0007F8000000004000807FFF807FFBC
:10104600F8040808040808040808040808043E0808
:1010560004000806001801006000000004000807EC
:10106600FFF807FFF804080804080004080004084D
:1010760000043E000600000600000180000000009B
:10108600000000003F8001FFE003807006001804A6
:1010960000080402080402080203F00783F00002B5
:1010A6000000020004000807FFF807FFF80408081C
:1010B60000080000080000080000080004080807EF
:1010C600FFF807FFF8040008000000000000040015
:1010D6000804000804000807FFF807FFF8040008E2
:1010E60004000804000800000000000000000000E2
:1010F60000060000070000010400010400010400CE
:101106000307FFFE07FFFC040000040000040000C4
:1011160004000807FFF807FFF8040C080018000091
:101126003E0004C7800503C80600F8040038040022
:101136001800000804000807FFF807FFF804000875
:101146000000080000080000080000080000080071
:10115600001800006000000004000807FFF8078080
:101166000807FC00007FC00003F80007C0007800F5
:1011760007800807FFF807FFF804000804000807BF
:10118600FFF807000803C00000E000003800001E5A
:10119600000007000001C00400F007FFF80400008B
:1011A600000000007F8001FFE00380700600180445
:1011B600000804000806001803003001FFE0007F65
:1011C6008000000004000807FFF807FFF804040881
:1011D600040400040400040400040400060C0003D4
:1011E600F80001F000000000000000007F8001FF11
:1011F600E00380700600880400880400C806003CEE
:1012060003003E01FFE6007F84000000040008079B
:10121600FFF807FFF8040808040800040C00040F90
:1012260000040BC00610F003F03801E008000008C7
:1012360000000001E0F803F030063010041808043E
:101246001808040C08040C080206180207F00781A7
:10125600E000000001800006000004000004000019
:1012660004000807FFF807FFF8040008040000045C
:10127600000006000001800004000007FFE007FFF1
:10128600F00400180000080000080000080000082C
:1012960000000804001007FFE00400000400000638
:1012A600000007E00007FE00041FE00001F8000050
:1012B600380001E0043E0007C000060000040000FC
:1012C60004000007E00007FFC0041FF80007C0077E
:1012D600F80007FF80043FF80007C004F800070085
:1012E6000004000000000004000806001807C0788B
:1012F60005F1C8003E00001F800463E80780F80679
:101306000018040008000000040000060000078022
:101316000007E008047C08001FF80007F80018081A
:1013260004E00807000006000004000000000001B9
:1013360000080600380400F80403E8040F08047CDB
:101346000805F00807C00807001804006000000040
:101356000000000000000000000000000000003F48
:10136600FFFE2000022000022000022000022000D2
:101376000200000000000000000008000007000056
:1013860000C0000038000006000001C00000300068
:10139600000E000001000000000000000000200018
:1013A600022000022000022000022000023FFFFE71
:1013B6000000000000000000000000000000000027
:1013C60000000000000800001000003000002000AF
:1013D60000300000100000080000000000000000BF
:1013E60000000100000100000100000100000100F2
:1013F60000010000010000010000010000010000E2
:1014060001000001000000000000000000200000B4
:101416002000001000001000000000000000000086
:1014260000000000000000000000000000F00019AD
:10143600F8001B18002208002608002408002410C3
:10144600003FF8001FF80000080000180000000424
:10145600000007FFF80FFFF0001818001008002022
:1014660008002008003018001FF0000FC000000020
:101476000000000007C0001FF00018300020080020
:101486002008002008003C08001C10000060000036
:10149600000000000000000007C0001FF000381820
:1014A60000200800200800200804101007FFF80F8D
:1014B600FFF0000010000000000000000000000720
:1014C600C0001FF000123000221800220800220877
:1014D600003208001E10000E200000000000000070
:1014E600200000200800200801FFF803FFF806206E
:1014F600080420080420080720000300000000005C
:1015060000000000000E000E6E001FF30031B10057
:1015160020B10020B1003191001F13002E1E0020C3
:101526000E00300000000004000807FFF80FFFF867
:10153600001008002000002000002008003FF800EE
:101546001FF8000008000000000000000000002056
:1015560008002008002008063FF8063FF8000008AB
:101566000000080000080000000000000000000065
:1015760000000000030000030020010020010020FD
:1015860003063FFE063FFC000000000000000000CE
:1015960000000004000807FFF80FFFF800018800AC
:1015A6000300002FC00038F8002038002008000093
:1015B6000800000000000000000004000804000805
:1015C60004000807FFF80FFFF800000800000800F5
:1015D6000008000000000000002008003FF8003F5F
:1015E600F8001008002000003FF8003FF80010083F
:1015F600002000003FF8003FF8000008000000004F
:101606002008003FF8003FF80010080010000020F6
:1016160000002008003FF8001FF800000800000046
:101626000000000007C0000FF0001830003008006E
:101636002008002008003008001830000FF00007CE
:10164600C0000000000000002001003FFF003FFF37
:101656000010110020090020080020080030380082
:101666001FF0000FC00000000000000007C0001FB0
:10167600F00038180020080020080020090010118A
:10168600001FFF003FFF00000100000000200800CF
:101696002008002008003FF8003FF8000808001066
:1016A6000800200800200000300000300000000084
:1016B600000000000000000C78001E18003308002F
:1016C60023080021080021880021980030F0003806
:1016D6006000000000000000200000200000200044
:1016E60000FFF003FFF80020080020080020080093
:1016F6000030000000000000000000002000003F55
:10170600F0007FF800001800000800000800201014
:10171600003FF8007FF0000010000000000000000D
:101726002000003000003C00003F800023F0000055
:1017360078000070002380003C000030000020008C
:10174600002000003C00003FE00023F80000E0001D
:101756002700003E00003FE00021F80001E0003EC7
:101766000000200000000000200800200800383893
:10177600003E680027800003C8002CF800383800B7
:1017860020180020080000000000000020000030A3
:1017960003003C01003F830023EC0000700023801F
:1017A600003C0000200000200000000000000000B7
:1017B60000000038080020380020F80023E8002F39
:1017C60088003E080038080020180000700000005D
:1017D6000000000000000000000000000000000003
:1017E60008000014001FF7FC30000620000200006D
:1017F60000000000000000000000000000000000E3
:10180600000000000000FFFFFF00000000000000D5
:1018160000000000000000000000000000002000A2
:10182600023000061FF7FC0014000008000000004C
:10183600000000000000000000000000000000188A
:101846000000600000400000400000200000100082
:10185600000800000400000400000C000010000056
:04186600000000007E
:082CD900900419EFF0A3EDF0E7
:102CE100A3121F930000000190041AE0FF14F0EFFB
:102CF1006020A3E0F8A3E0F9A3E0FAA3E0FB9004CD
:102D010019E0FFE4FCFDFE121E6A90041B121F87EE
:102D110080D690041BE0FCA3E0FDA3E0FEA3E0FF4E
:012D2100228F
:04000300E4FD7F8D0C
:03000700022DA126
:03303700022E5313
:03303A00022E79EA
:0B000E00900458E090045EF0022D22E8
:03303D0002001E70
:03304000022D68F6
:102EE8007FB012303AE4FF12303A7F1012303A7B4A
:0C2EF800017A0079007D007C0402303D6E
:102FF100120003E4FD7F14120007E4FD7FAF02001D
:0130010007C7
:10300200120003E4FD7F10120007E4FD7FAE020010
:0130120007B6
:102DFD00E4FFE4FE75F008EEA42400F582E5F0345E
:102E0D0000F583E5822FF582E43583F583E4F00E3A
:0C2E1D00EEB480E00FEFB408D9022EE8FC
:10292E00FF90042EA3E0FE900424E02EFD900427D9
:02293E00E0FBBC
:10294000E4900422F0EFD3947F40030229DBED945E
:102950003F40030229DBED131313541FFEC374071A
:102960009E900421F0ED5407FEC374079EFE74018F
:10297000A806088002C333D8FC900422F0EB900430
:1029800021602AE0FE75F008EFA42400F582E5F04E
:102990003400F583E5822EF582E43583F583C08328
:1029A000C082E0FF900422E0FEEF4E8029E0FE7539
:1029B000F008EFA42400F582E5F03400F583E58209
:1029C0002EF582E43583F583C083C082E0FF900456
:0B29D00022E0F4FEEF5ED082D083F026
:0129DB0022D9
:0C186A00900426F0900463E0900427F046
:0C187600900423EFF0A3EDF0F9A3EBF0D9
:10188200C39FFEE49400900428F0A3CEF0E9FF90F9
:101892000426E0C39FFEE4940090042AF0A3CEF055
:1018A200782C7C047D017BFF7A1879667E007F04A8
:1018B200121D9AE4FC90042AE07002A3E07073C344
:1018C200900428E0648094805031E0FEA3E0FFC3DE
:1018D200E49FFFE49E900428F0A3EFF0900423E03D
:1018E200FF900425E0FEEF6E900423F0E0FFEE6F20
:1018F200FE900425F0EF6E900423F0900428E0FEA1
:10190200A3E0FF90042CE0FAA3E0FBD39FEE6480F7
:10191200F8EA6480984003021CC9900423E02B1269
:10192200292E90042DE004F070D190042CE004F0F4
:1019320080C9900428E07002A3E060030219BEC3CC
:1019420090042AE0648094805031E0FEA3E0FFC35B
:10195200E49FFFE49E90042AF0A3EFF0900424E0B9
:10196200FF900426E0FEEF6E900424F0E0FFEE6F9D
:10197200FE900426F0EF6E900424F090042AE0FE1C
:10198200A3E0FF90042EE0FAA3E0FBD39FEE648075
:10199200F8EA6480984003021CC990042CA3E0FF7B
:1019A200900423E02FFFA3E02B12293A90042FE0AA
:1019B20004F070C790042EE004F080BFD390042995
:1019C200E09400900428E0648094804018D390044E
:1019D2002BE0940090042AE0648094804007EC4459
:1019E20001FC021AE5D3900429E09400900428E057
:1019F20064809480402D90042AE0FEA3E0FFEE6410
:101A0200809480501EEC4402FCC3E49FFFE49E904D
:101A1200042AF0A3EFF0900424E025E0FF900426CE
:101A2200021ADFC3900428E0648094805075C3904A
:101A3200042AE064809480506AEC4404FC900428F8
:101A4200E0FEA3E0FFC3E49FFFE49E900428F0A31E
:101A5200EFF0A3E0FEA3E0FFC3E49FFFE49E900447
:101A62002AF0A3EFF0900423E0FF900425E0FEEFBC
:101A72006E900423F0E0FFEE6FFE900425F0EF6E0F
:101A8200900423F0A3E0FF900426E0FEEF6E9004A2
:101A920024F0E0FFEE6FFE900426F0EF6E90042437
:101AA200F08040900428E0FEA3E0FFC3EE6480943F
:101AB20080503090042BE0940090042AE0648094DB
:101AC200804020EC4408FCE49FFFE49E900428F050
:101AD200A3EFF0900423E025E0FF900425E0FEC38D
:101AE200EF9EF090042AE0FEA3E0FFC3900429E0F9
:101AF2009FEE6480F8900428E0648098505EEC4485
:101B020010FC900425E0900436F0900426E0FF904B
:101B12000437F0900424E0FE900423E0FDC39E2FDE
:101B2200FF900425F0EDF404FDEE2DFE900436E066
:101B32002EF9900426F0900423E0FBC3EF9BFEE411
:101B42009400900428F0A3CEF0900424E0FFE9C3AF
:101B52009FFEE4940090042AF0A3CEF090042AE0C1
:101B6200FAA3E0FB25E0FEEA33900430F0A3CEF0C6
:101B7200900428E0FEA3E0FFC3EB9FFFEA9EFEEF86
:101B820025E0FFEE33900432F0A3EFF090042BE057
:101B920025E0FF90042AE033FE900428E0FAA3E057
:101BA200FBC3EF9BFFEE9A900434F0A3EFF0900496
:101BB2002CA3E0FF900423E02F12292E90042DE0A5
:101BC20004F0700690042CE004F0900428E0FEA3D8
:101BD200E0FFD390042DE09FEE6480F890042CE0A7
:101BE2006480984003021CC9C3900434E06480946A
:101BF200805005900430801190042FE004F07006AC
:101C020090042EE004F0900432E0FEA3E0FF900482
:101C120035E02FF0900434E03EF0EC540F24FE60E7
:101C22003524FE600B24FC605C24076003021CB8B0
:101C3200EC30E41190042EA3E0FF900423E02FFF88
:101C420090042C806690042CA3E0FF900423E02FE4
:101C5200FF90042E8055EC30E41190042EA3E0FF97
:101C6200900423E02FFF90042C800F90042CA3E01B
:101C7200FF900423E02FFF90042EA3E0FE900424A3
:101C8200E0C39E802EEC30E41290042EA3E0FF907D
:101C92000423E0C39FFF90042C801090042CA3E047
:101CA200FF900423E0C39FFF90042EA3E0FE900464
:101CB20024E02E12293A90042DE004F070069004DC
:071CC2002CE004F0021BCC32
:011CC90022F8
:102C2F00900460EDF090045FEFF0900461EBF09092
:102C3F000460E0FD12186A90045FE0FF900462E008
:102C4F00FD900461E0FB900426ED12186D90045F77
:102C5F00E0FBFFA3E0FD900462E012186A900461AC
:102C6F00E0FBFF900460E0FD900462E0900426F02A
:0B2C7F00900463E0900427F002187638
:0E261000900439EDF0A3EBF0A3EAF0A3E9F09B
:10261E00EFD3947F40030226EF900439E0FE943FFF
:10262E0040030226EF900440EFF0A3EEF090043E3C
:10263E00E0FF131313541FFEEF540760047F018055
:10264E00027F00EE2FFF90043DE0FEEF8EF0A4908F
:10265E000442F0E4A3F0900442E0FFA3E0C39F40E5
:10266E00030226EF90043AE0FBA3E0FAA3E0F9128E
:10267E001DC0FCE4FAEC30E70F900440E0FFA3E04D
:10268E00FD90043FE0FB8014900440E0FFA3E0FDCA
:10269E0090043FE070047B0180027B00122940EC25
:1026AE0025E0FC900441E004F0900439E0FF900432
:1026BE0041E0C39FFE90043EE0B5060D900441EF4D
:1026CE00F0900440E004F080050AEAB408A79004F4
:1026DE003BE475F001121E06900443E004F002265E
:0126EE006487
:0126EF0022C8
:07006600900465EDF0A90311
:10006D00AC07ECD399501F900465E0FA900467E05B
:10007D00FFEAD39F500DAF04AD02A3E0FB12294060
:09008D000A80E90C80DC022EE877
:0C251000900419EFF090041BEBF0A905FB
:10251C0090041FE9F090041CE0FF131313541FFEEA
:10252C00EF540760047F0180027F00EE2FFF9004C0
:10253C001CE0C313FEEF8EF0A4900420F090041B5B
:10254C00E024E0F0E4FC900420E0FFECC39F4003A7
:10255C0002260F90041CE0FFB40C1290041BE075D3
:10256C00F00CA424A6F582E5F03400802EEFB41014
:10257C001290041BE075F010A4241AF582E5F034D7
:10258C0005801890041CE06418707890041BE075AA
:10259C00F024A4240AF582E5F0340BF583E5822CB3
:1025AC00F582E43583F583E49390041EF0E4FA900D
:1025BC00041EE030E70E900419E0FFAD0190041DFD
:1025CC00E0FB8013900419E0FFAD0190041DE07056
:1025DC00047B0180027B0012294090041EE025E060
:1025EC00F009A3E0FFC3E99FFE90041CE0B5060AC6
:1025FC00A907900419E004F080050AEAB408B00CAD
:03260C0002255252
:01260F0022A8
:0826F00090040DEFF0A3EDF0E2
:1026F800E4900418F0900416F0900413E0FF90049E
:1027080016E0FEC39F40030227BCC3EF9E14FD7F63
:102718000A122CD9A804A905AA06AB0790040FE051
:10272800FCA3E0FDA3E0FEA3E0FF121EF5E47B0A94
:10273800FAF9F8121EF5900417EBF0A3E0703E903A
:102748000413E014FF900416E0FEC39F502FA3E08B
:102758007025900414E0FCC3138EF0A4FF90040DC0
:10276800E02FFFA3E0FD90041CECF0900415E0902E
:10277800041DF07B2080319004187401F09004143B
:10278800E0FEC313FF900416E0FDEF8DF0A4FF9068
:10279800040DE02FFFA3E0FD900417E02430FB9028
:1027A800041CEEF0A37401F0122510900416E00446
:0427B800F002270103
:0127BC0022FA
:082B1400900400EFF0A3EDF0C6
:102B1C00E4900408F0900402E0FCA3E0FDA3E0FEC6
:102B2C00A3E0FF900409121F87900409E0FCA3E0C6
:102B3C00FDA3E0FEA3E0FFE47B0AFAF9F8121EF510
:102B4C00900409121F87900408E004F0A3E0FCA392
:102B5C00E0FDA3E0FEA3E0FFEC4D4E4F70CB9004E4
:102B6C0002E0FCA3E0FDA3E0FEA3E0FF90040F1243
:102B7C001F87900408E0900413F0900406E0900482
:102B8C0014F0900407E0900415F0900401E0FD901F
:072B9C000400E0FF0226F037
:1029DC00900400EFF0A3EDF0A3EBF0A3EAF0A3E971
:1029EC00F0900402E0FBA3E0FAA3E0F9121DC0FF93
:1029FC00D3947E4003022A82EFC394204078900443
:102A0C0005E0FF13FEC374809EFE900400E0D39E8D
:102A1C004006E4F0A3E02FF0900405E0FFC37440FF
:102A2C009FFF900401E0D39F400AE4900400F0A3C0
:102A3C00F0122DFD900400E0FFA3E0FDA3E0FBA34A
:102A4C00E0FAA3E0F9121DC0FB900405E090041C11
:102A5C00F0900406E090041DF0122510900405E09F
:102A6C00C313FF900400E02FF0900403E475F00111
:072A7C00121E060229ED22E3
:03304300022FDC7D
:10287E00123043E4FD7FAE120007E4FD7FD5120057
:10288E0007E4FD7F50120007E4FD7FA8120007E465
:10289E00FD7F3F120007E4FD7FD3120007E4FDFF2A
:1028AE00120007E4FD7F40120007120003E4FD7FD3
:1028BE0014120007E4FD7F20120007E4FD7F0112D1
:1028CE000007E4FD7FA1120007E4FD7FC0120007A0
:1028DE00E4FD7FDA120007E4FD7F12120007E4FD2B
:1028EE007F81120007E4FD7FEF120007E4FD7FD920
:1028FE00120007E4FD7FF1120007E4FD7FDB1200FA
:10290E0007E4FD7F30120007E4FD7FA4120007E408
:10291E00FD7FA6120007E4FD7FAF120007022DFD1A
:102FDC009004007402F0A37430F07B017A04790041
:052FEC007F010222BC80
:102DA100900400EF122EA97F78122ED0122F0490DA
:102DB1000401E060047F408002E4FF122ED0122F54
:0F2DC10004900400E0FF122ED0122F04023022E3
:102E5300900471EFF0122EAD7F78122ED0122F0452
:102E63007F40122ED0122F04900471E0FF122ED057
:062E7300122F04023022C0
:102E7900900407EFF0122EAD7F78122ED0122F0496
:102E8900E4FF122ED0122F04900407E0FF122ED077
:062E9900122F040230229A
:102D2200900459122E9F7F78122ED0122F049004F5
:102D32005EE060047F408002E4FF122ED0122F0476
:102D420090045C74FFF5F0121E1C45F060159004AF
:102D520059122EC4122F0490045AE475F001121E67
:062D62000680DD023022B4
:10001E00900407122E9F7F78122ED0122F047F404D
:10002E00122ED0122F0490040A74FFF5F0121E1C2B
:10003E0045F06015900407122EC4122F0490040888
:0C004E00E475F001121E0680DD02302275
:102D6800900469122E9F7F78122ED0122F04E480CF
:102D78001C90046C74FFF5F0121E1C45F06017904F
:102D88000469E0FBA3E0FAA3E0F9121DC0FF122ECC
:092D9800D0122F0480DB0230226E
:0E2E9F00EBF0A3EAF0A3E9F0A3ECF0A3EDF052
:102EAD00D294D2957F017E00122F69C2947F017E4C
:072EBD0000122F69C29522EB
:0F302200C295C294D2950000D294000000002203
:102F0400E4FFD294D2950030940D0FEFD394FA409D
:0B2F1400F61230227F0122C2957F00E0
:012F1F00228F
:102FAE00C295C2947F037E00122F52D2957F037E6C
:072FBE0000122F52C2952200
:102FC500C295D2947F037E00122F52D2957F037E45
:072FD50000122F52C29522E9
:0C2EC400E0FBA3E0FAA3E0F9121DC0FF40
:102ED000E4FEEF339294EF25E0FFD295000000006E
:072EE000C2950EEEB408EBF1
:012EE70022C8
:052C8A0090046EEFF064
:102C8F00E4900470F0D29490046FF0C2957F037EAD
:102C9F0000122F52D295900470E025E0F03094038B
:102CAF00E004F07F027E00122F5290046FE004F0D8
:102CBF00E0C3940840D590046EE07005122FC580D4
:092CCF0003122FAE900470E0FF27
:012CD80022D9
:03000000022BA32D
:0C2BA300787FE4F6D8FD758107022BEA6C
:101CCA00E709F608DFFA8046E709F208DFFA803EFC
:101CDA0088828C83E709F0A3DFFA8032E309F608E9
:101CEA00DFFA8078E309F208DFFA807088828C8351
:101CFA00E309F0A3DFFA806489828A83E0A3F60805
:101D0A00DFFA805889828A83E0A3F208DFFA804CDE
:101D1A0080D280FA80C680D4806980F280338010B5
:101D2A0080A680EA809A80A880DA80E280CA80331E
:101D3A0089828A83ECFAE493A3C8C582C8CCC58396
:101D4A00CCF0A3C8C582C8CCC583CCDFE9DEE78066
:101D5A000D89828A83E493A3F608DFF9ECFAA9F0E5
:101D6A00EDFB2289828A83ECFAE0A3C8C582C8CC3B
:101D7A00C583CCF0A3C8C582C8CCC583CCDFEADE54
:101D8A00E880DB89828A83E493A3F208DFF980CCB6
:101D9A0088F0EF60010E4E60C388F0ED2402B404AF
:101DAA000050B9F582EB2402B4040050AF23234556
:061DBA008223901D1A7344
:101DC000BB010689828A83E0225002E722BBFE0221
:091DD000E32289828A83E4932254
:101DD900BB010CE58229F582E5833AF583E02250BF
:101DE90006E92582F8E622BBFE06E92582F8E22209
:0D1DF900E58229F582E5833AF583E4932223
:101E0600C5F0F8A3E028F0C5F0F8E5821582700267
:061E16001583E038F02204
:101E1C00A3F8E0C5F025F0F0E58215827002158379
:061E2C00E0C838F0E822D6
:101E3200BB0110E58229F582E5833AF583E0F5F0EE
:101E4200A3E0225009E92582F886F008E622BBFECB
:101E52000AE92582F8E2F5F008E222E5832AF58311
:081E6200E993F5F0A3E99322D6
:101E6A00E88FF0A4CC8BF0A42CFCE98EF0A42CFC17
:101E7A008AF0EDA42CFCEA8EF0A4CDA8F08BF0A495
:101E8A002DCC3825F0FDE98FF0A42CCD35F0FCEBF4
:101E9A008EF0A4FEA9F0EB8FF0A4CFC5F02ECD39B9
:0F1EAA00FEE43CFCEAA42DCE35F0FDE43CFC2226
:101EB90075F008758200EF2FFFEE33FECD33CDCCE0
:101EC90033CCC58233C5829BED9AEC99E582984063
:101ED9000CF582EE9BFEED9AFDEC99FC0FD5F0D640
:101EE900E4CEFBE4CDFAE4CCF9A88222B800C1B96A
:101EF9000059BA002DEC8BF084CFCECDFCE5F0CBA8
:101F0900F97818EF2FFFEE33FEED33FDEC33FCEBE0
:101F190033FB10D703994004EB99FB0FD8E5E4F99B
:101F2900FA227818EF2FFFEE33FEED33FDEC33FC88
:101F3900C933C910D7059BE99A4007EC9BFCE99A7C
:101F4900F90FD8E0E4C9FAE4CCFB2275F010EF2FC1
:101F5900FFEE33FEED33FDCC33CCC833C810D707C1
:101F69009BEC9AE899400AED9BFDEC9AFCE899F8FC
:0E1F79000FD5F0DAE4CDFBE4CCFAE4C8F9228F
:0C1F8700ECF0A3EDF0A3EEF0A3EFF022CD
:101F9300A8828583F0D083D082121FAA121FAA12AF
:101FA3001FAA121FAAE473E493A3C583C5F0C583D4
:101FB300C8C582C8F0A3C583C5F0C583C8C582C898
:011FC30022FB
:102BAF00022A83E493A3F8E493A34003F68001F28F
:102BBF0008DFF48029E493A3F85407240CC8C33327
:102BCF00C4540F4420C8834004F456800146F6DFF6
:102BDF00E4800B0102040810204080902F3AE47E1D
:102BEF00019360BCA3FF543F30E509541FFEE493EB
:102BFF00A360010ECF54C025E060A840B8E493A3B2
:102C0F00FAE493A3F8E493A3C8C582C8CAC583CADC
:102C1F00F0A3C8C582C8CAC583CADFE9DEE780BE94
:012F5100007F
:00000001FF
