:042AFB007F4EDFFE2D
:012AFF0022B4
:102A0D007D027C00ED1D70011C144C70F7EF1F70E2
:062A1D00011E144E70EAD8
:012A23002290
:102A24007D0C7C00ED1D70011C144C70F7EF1F70C1
:062A3400011E144E70EAC1
:012A3A002279
:102A3B007D187C00ED1D70011C144C70F7EF1F709E
:062A4B00011E144E70EAAA
:012A51002262
:102A52007D607C09ED1D70011C144C70F7EF1F7036
:062A6200011E144E70EA93
:012A6800224B
:101EE900EFD3940740037F0122121D1DFED39403F3
:101EF90040037F0222EF7041EE700B900001121D2A
:101F090036F452935294121D1DB4010B9000011224
:101F19001D364293F45294121D1DFEB4020A90001C
:101F290001121D3642934294EEB4030D9000011242
:101F39001D36FEF45293EE4294EF64017043121D74
:101F49001DFE700B900001121D36F452915292EE53
:101F5900B4010B900001121D364291F45292121DE8
:101F69001DB4020A900001121D3642914292121DBF
:101F79001DB4030D900001121D36FEF45291EE427C
:101F890092EF64027043121D1DFE700B9000011246
:101F99001D36F452955296EEB4010B900001121DB4
:101FA900364295F45296121D1DB4020A9000011290
:101FB9001D3642954296121D1DB4030D9000011263
:101FC9001D36FEF45295EE4296EF64037043121DDE
:101FD9001DFE700B900001121D36F452B152B2EE83
:101FE900B4010B900001121D3642B1F452B2121D18
:101FF9001DB4020A900001121D3642B142B2121DEF
:102009001DB4030D900001121D36FEF452B1EE42CB
:10201900B2EF64047043121D1DFE700B9000011293
:102029001D36F452B352B4EEB4010B900001121DE7
:102039003642B3F452B4121D1DB4020A90000112C3
:102049001D3642B342B4121D1DB4030D9000011296
:102059001D36FEF452B3EE42B4EF64057043121D0F
:102069001DFE700B900001121D36F452C952CAEEC2
:10207900B4010B900001121D3642C9F452CA121D57
:102089001DB4020A900001121D3642C942CA121D2E
:102099001DB4030D900001121D36FEF452C9EE4223
:1020A900CAEF64067043121D1DFE700B90000112E9
:1020B9001D36F452CB52CCEEB4010B900001121D27
:1020C9003642CBF452CC121D1DB4020A9000011203
:1020D9001D3642CB42CC121D1DB4030D90000112D6
:1020E9001D36FEF452CBEE42CCEF64077043121D4D
:1020F9001DFF700B900001121D36F452E152E2EF00
:10210900B4010B900001121D3642E1F452E2121D96
:102119001DB4020A900001121D3642E142E2121D6D
:102129001DB4030D900001121D36FFF452E1EF4278
:04213900E27F00221F
:1027B700900400121EB8000000001229F31223EA49
:1027C700900400E0FCA3E0FDA3E0FEA3E02401FFEA
:1027D700E43EFEE43DFDE43CFC900400121EAC9098
:1027E7000400E0FCA3E0FDA3E0FEA3E0FF1228FC49
:0527F7001229BB80CB9C
:1029F3009004047403F0A37460F07B017A047904F7
:092A03007F04121EE9D2C5D2C6FF
:012A0C0022A7
:1028FC00900404121EAC900404E0FCA3E0FDA3E0E1
:10290C00FEA3E0FF90040A121EAC90040E7410F0AB
:0A291C00A37401F0E4FDFF0225EFB3
:1000030000000000000000000000000000000000ED
:100013003F400000000000000000300040003000BE
:100023004000000009000BC03D000BC03D0009006B
:1000330018C024407FE0224031800000180024C013
:100043001B000D803240018003801C4027401C8030
:1000530007400040100060000000000000000000A6
:100063000000000000001F802040402000004020CE
:1000730020401F8000000000090006001F800600CA
:1000830009000000040004003F8004000400000095
:1000930000100060000000000000000004000400E5
:1000A3000400040004000000000000400000000001
:1000B30000000000002001C00600380040000000DE
:1000C3001F802040204020401F800000000010407F
:1000D3003FC000400000000018C0214022402440DF
:1000E3001840000010802040244024401B80000062
:1000F30002000D0011003FC0014000003C8024407D
:1001030024402440238000001F80244024403440A6
:10011300038000003000200027C0380020000000CA
:100123001B802440244024401B8000001C0022C06C
:10013300224022401F800000000000000840000011
:100143000000000000000000046000000000000048
:10015300000004000A00110020804040090009004B
:100163000900090009000000000040402080110040
:100173000A00040018002000234024001800000097
:100183001F802040274029401F400000004007C037
:1001930039000F0001C0004020403FC024402440EC
:1001A3001B8000001F802040204020403080000042
:1001B30020403FC0204020401F80000020403FC01F
:1001C30024402E4030C0000020403FC024402E0079
:1001D300300000000F0010802040224033800200D6
:1001E30020403FC0040004003FC020402040204086
:1001F3003FC02040204000000060202020203FC05E
:100203002000200020403FC024400B0030C020408D
:1002130020403FC020400040004000C03FC03C00A1
:1002230003C03C003FC0000020403FC00C402300FF
:100233003FC020001F802040204020401F8000003E
:1002430020403FC024402400180000001F802140AC
:10025300214020E01FA0000020403FC02440260092
:1002630019C0004018C024402440224031800000BF
:10027300300020403FC020403000000020003F807D
:10028300004000403F80200020003E0001C00700E6
:1002930038002000380007C03C0007C038000000C9
:1002A300204039C0060039C02040000020003840FB
:1002B30007C0384020000000304021C026403840AD
:1002C30020C00000000000007FE04020402000002C
:1002D300000070000C00038000400000000040207C
:1002E30040207FE0000000000000200040002000CC
:1002F300000000000010001000100010001000109B
:100303000000000040000000000000000000028028
:100313000540054003C0004020003FC004400440A6
:1003230003800000000003800440044006400000F6
:1003330000000380044024403FC0004000000380CD
:100343000540054003400000000004401FC0244056
:1003530024402000000002E0055005500650042010
:1003630020403FC00440040003C00040000004409C
:1003730027C000400000000000100010041027E018
:100383000000000020403FC00140070004C00440BB
:10039300204020403FC000400040000007C0040050
:1003A30007C0040003C00000044007C00440040069
:1003B30003C00040000003800440044003800000A9
:1003C300041007F004500440038000000000038081
:1003D3000440045007F00010044007C0024004002A
:1003E30004000000000006400540054004C0000072
:1003F300000004001F800440004000000400078048
:100403000040044007C000400400070004C001800E
:1004130006000400060001C0070001C0060000003A
:10042300044006C0010006C0044000000410071089
:1004330004E00180060004000000044005C00640FB
:10044300044000000000000004007BE040200000A6
:10045300000000000000FFF000000000000040204A
:100463007BE004000000000040008000400020000A
:100473002000400000000000000000000000000019
:10048300000000000000000000001FCC000C000072
:100493000000000000000800300060000800300089
:1004A30060000000022003FC1E20022003FC1E202B
:1004B3000220000000000E1811043FFF10840C7886
:1004C300000000000F0010840F3800C00778188464
:1004D3000078000000780F8410C411240E9800E403
:1004E300008400080800680070000000000000009D
:1004F3000000000000000000000007E018182004BE
:1005030040020000000040022004181807E0000029
:10051300000000000240024001800FF00180024011
:10052300024000000080008000800FF800800080FF
:10053300008000000001000D000E0000000000001C
:100543000000000000000080008000800080008028
:10055300008000800000000C000C00000000000080
:100563000000000000000006001800600180060083
:1005730018002000000007F0080810041004080801
:1005830007F000000000080408041FFC0004000436
:100593000000000000000E0C1014102410441184FD
:1005A3000E0C000000000C18100411041104128832
:1005B3000C700000000000E00320042408241FFC4A
:1005C3000024000000001F981084110411041088F7
:1005D30010700000000007F0088811041104188847
:1005E3000070000000001C00100010FC13001C0031
:1005F3001000000000000E381144108410841144D0
:100603000E38000000000700088C104410440888CE
:1006130007F00000000000000000030C030C0000C2
:1006230000000000000000000001010600000000BF
:1006330000000000000000800140022004100808B0
:1006430010040000022002200220022002200220C7
:1006530002200000000010040808041002200140DA
:100663000080000000000E001200100C106C1080BF
:100673000F00000003E00C1813E4142417C4082827
:1006830007D000000004003C03C41C40074000E402
:10069300001C000410041FFC1104110411040E8833
:1006A3000070000003E00C1810041004100410087C
:1006B3001C10000010041FFC100410041004080890
:1006C30007F0000010041FFC1104110417C41004E8
:1006D3000818000010041FFC1104110017C01000BB
:1006E3000800000003E00C181004100410441C78E8
:1006F3000040000010041FFC108400800080108460
:100703001FFC10040000100410041FFC100410044C
:100713000000000000030001100110011FFE100083
:100723001000000010041FFC110403801464181C43
:100733001004000010041FFC100400040004000453
:10074300000C000010041FFC1F0000FC1F001FFC16
:100753001004000010041FFC0C04030000E0101838
:100763001FFC100007F00808100410041004080808
:1007730007F0000010041FFC10841080108010800C
:100783000F00000007F0081810241024101C080A9A
:1007930007F2000010041FFC1104110011C01130F6
:1007A3000E0C000400000E1C11041084108410446D
:1007B3001C3800001800100010041FFC1004100067
:1007C3001800000010001FF81004000400041004B7
:1007D3001FF8100010001E0011E0001C00701380B1
:1007E3001C0010001FC0103C00E01F0000E0103C84
:1007F3001FC000001004180C163401C001C01634C9
:10080300180C100410001C00130400FC13041C003B
:10081300100000000804101C1064108413041C044E
:10082300101800000000000000007FFE400240029C
:1008330040020000000030000C0003800060001C38
:100843000003000000004002400240027FFE00005F
:1008530000000000000000002000400040004000B5
:10086300200000000001000100010001000100015F
:1008730000010001000040004000200000000000D3
:1008830000000000000000980124014401440144D9
:1008930000FC000410001FFC008801040104008810
:1008A30000700000000000700088010401040104CE
:1008B3000088000000000070008801040104110892
:1008C3001FFC0004000000F80144014401440144FA
:1008D30000C800000000010401040FFC110411040E
:1008E30011001800000000D601290129012901C9BE
:1008F3000106000010041FFC008401000100010434
:1009030000FC000400000104190419FC00040004A5
:10091300000000000000000300010101190119FE9D
:100923000000000010041FFC0024004001B4010C6F
:10093300010400000000100410041FFC0004000464
:1009430000000000010401FC0104010001FC01049A
:10095300010000FC010401FC00840100010001040A
:1009630000FC0004000000F8010401040104010478
:1009730000F80000010101FF008501040104008863
:1009830000700000000000700088010401040105EC
:1009930001FF00010104010401FC008401040100C2
:1009A30001800000000000CC012401240124012463
:1009B3000198000000000100010007F80104010490
:1009C30000000000010001F8000400040004010815
:1009D30001FC0004010001800170000C00100160A3
:1009E3000180010001F0010C003001C00030010C56
:1009F30001F0010000000104018C00740170018CFE
:100A030001040000010101810171000E0018016061
:100A13000180010000000184010C013401440184C0
:100A2300010C0000000000000000000001003EFC7B
:100A3300400240020000000000000000FFFF000031
:100A4300000000000000400240023EFC01000000E4
:100A530000000000000060008000800040004000B3
:100A63002000200000000000000000000000000043
:100A73000000000000000000000000000000000073
:100A83000000000000000000000000000000000063
:100A9300000000000000000F80380FFE380F803880
:100AA3000000000000000000000000000000000043
:100AB30000000100000600000C00003800003100B7
:100AC300000600000C0000380000300000000000A9
:100AD3000000000061800067F807F9800061800072
:100AE30061800061800061800067F807F980006120
:100AF3008000000000000000000001C0E003E0F0FF
:100B03000630080418081FFFFE040E080787F003C9
:100B130081E000000000000001F000060C00040466
:100B230008060C7001F9C0000E00003BE000EC1851
:100B3300070808040C180003E00000000001E000AF
:100B430007F003F818041C0804170807E1D003C0D2
:100B5300E00023B0003C0800200800001000000063
:100B63000000000100003100003200001C00000002
:100B73000000000000000000000000000000000072
:100B83000000000000000000000000000000000062
:100B9300000000007F0001FFC00780F00C00181068
:100BA30000042000020000000000002000021000EA
:100BB300040C00180780F001FFC0007F0000000054
:100BC3000000000000000000000000000000000022
:100BD3004200006600006600003C0000180003FFAE
:100BE300C0001800003C00006600006600004200E0
:100BF30000000000080000080000080000080000D2
:100C0300080001FFC00008000008000008000008F9
:100C13000000080000000000000100003100003265
:100C230000001C00000000000000000000000000A5
:100C330000000000000000000000000008000008A1
:100C43000000080000080000080000080000080079
:100C53000008000008000008000000000000000079
:100C630000000000380000380000380000000000D9
:100C73000000000000000000000000000000000071
:100C830000000000000600001C000070000180004E
:100C93000E0000380000C0000700001C00003000F8
:100CA30000000000000000007F8001FFE00380706F
:100CB30006001804000804000806001803807001E9
:100CC300FFE0007F80000000000000000000010042
:100CD3000801000801000803FFF807FFF8000008F7
:100CE30000000800000800000000000000000001F0
:100CF300C03802C058040098040118040218040400
:100D030018061C1803F81801E0F8000000000000A2
:100D130000000001C0E003C0F00400080408080458
:100D2300080806180803F41801E7F00001E00000C2
:100D330000000000000000000300000D000011008F
:100D430000610000810803010807FFF80FFFF800A6
:100D530001080001080000000000000000E007FC9B
:100D6300D0060808061008061008061008061838EA
:100D7300060FF00607C0000000000000000000009E
:100D83003F8001FFE00384300208180410080410B8
:100D930008041008071810030FF00007C000000034
:100DA30000000000000003C000070000060000066A
:100DB30000F80607F806180006E000070000060022
:100DC3000000000000000001E1E003F7F00634102A
:100DD300041808041808040C08040C080616180361
:100DE300F3F001C1E000000000000000F80003FC84
:100DF300300306380402080402080402080404103D
:100E03000308F001FFC0007F0000000000000000A5
:100E130000000000000000000000000070380070B7
:100E230038007038000000000000000000000000DF
:100E330000000000000000000000000000000000AF
:100E4300301A00301C000000000000000000000009
:100E53000000000000000000000000080000140073
:100E630000220000410000808001004002002004B5
:100E7300001008000800000000000000210000210D
:100E830000002100002100002100002100002100BA
:100E930000210000210000210000000000000000EC
:100EA3000000080008040010020020010040008038
:100EB3008000410000220000140000080000000030
:100EC30000000003C00004C000040000080038084C
:100ED3000F380808380810000C300007E00003C082
:100EE30000000000000000003F8000FFE00380706E
:100EF300020F1006708804C088048308047F8802E8
:100F0300C09003012000FE4000000800001800010B
:100F1300F8003E0801C20007020007E20000FE00DD
:100F2300001FC80001F8000038000008040008078B
:100F3300FFF807FFF8040808040808040808040871
:100F43000806180803F41801E7F00001E0000000A8
:100F5300000000003F8001FFE003807002001804DE
:100F6300000804000804000804001006002007809D
:100F7300C000000004000807FFF807FFF80400089A
:100F83000400080400080400180200100380700124
:100F9300FFE0007F8000000004000807FFF807FF60
:100FA300F8040808040808040808040808043E08AC
:100FB3000400080600180100600000000400080790
:100FC300FFF807FFF80408080408000408000408F1
:100FD30000043E000600000600000180000000003F
:100FE300000000003F8001FFE0038070060018044A
:100FF30000080402080402080203F00783F0000259
:101003000000020004000807FFF807FFF8040808BF
:101013000008000008000008000008000408080792
:10102300FFF807FFF80400080000000000000400B8
:101033000804000804000807FFF807FFF804000885
:101043000400080400080000000000000000000085
:101053000006000007000001040001040001040071
:101063000307FFFE07FFFC04000004000004000068
:1010730004000807FFF807FFF8040C080018000035
:101083003E0004C7800503C80600F80400380400C6
:101093001800000804000807FFF807FFF804000819
:1010A3000000080000080000080000080000080015
:1010B300001800006000000004000807FFF8078024
:1010C3000807FC00007FC00003F80007C000780099
:1010D30007800807FFF807FFF80400080400080763
:1010E300FFF807000803C00000E000003800001EFE
:1010F300000007000001C00400F007FFF80400002F
:10110300000000007F8001FFE003807006001804E8
:10111300000804000806001803003001FFE0007F08
:101123008000000004000807FFF807FFF804040824
:10113300040400040400040400040400060C000377
:10114300F80001F000000000000000007F8001FFB4
:10115300E00380700600880400880400C806003C91
:1011630003003E01FFE6007F84000000040008073F
:10117300FFF807FFF8040808040800040C00040F34
:1011830000040BC00610F003F03801E0080000086B
:1011930000000001E0F803F03006301004180804E2
:1011A3001808040C08040C080206180207F007814B
:1011B300E0000000018000060000040000040000BD
:1011C30004000807FFF807FFF80400080400000400
:1011D300000006000001800004000007FFE007FF95
:1011E300F0040018000008000008000008000008D0
:1011F30000000804001007FFE004000004000006DC
:10120300000007E00007FE00041FE00001F80000F3
:10121300380001E0043E0007C0000600000400009F
:1012230004000007E00007FFC0041FF80007C00721
:10123300F80007FF80043FF80007C004F800070028
:101243000004000000000004000806001807C0782E
:1012530005F1C8003E00001F800463E80780F8061C
:1012630000180400080000000400000600000780C6
:101273000007E008047C08001FF80007F8001808BE
:1012830004E008070000060000040000000000015D
:1012930000080600380400F80403E8040F08047C7F
:1012A3000805F00807C008070018040060000000E4
:1012B3000000000000000000000000000000003FEC
:1012C300FFFE200002200002200002200002200076
:1012D30002000000000000000000080000070000FA
:1012E30000C0000038000006000001C0000030000C
:1012F300000E0000010000000000000000002000BC
:10130300022000022000022000022000023FFFFE14
:1013130000000000000000000000000000000000CA
:101323000000000000080000100000300000200052
:101333000030000010000008000000000000000062
:101343000000010000010000010000010000010095
:101353000001000001000001000001000001000085
:101363000100000100000000000000000020000058
:10137300200000100000100000000000000000002A
:1013830000000000000000000000000000F0001951
:10139300F8001B1800220800260800240800241067
:1013A300003FF8001FF800000800001800000004C8
:1013B300000007FFF80FFFF00018180010080020C6
:1013C30008002008003018001FF0000FC0000000C4
:1013D3000000000007C0001FF000183000200800C4
:1013E3002008002008003C08001C100000600000DA
:1013F300000000000000000007C0001FF0003818C4
:1014030000200800200800200804101007FFF80F30
:10141300FFF00000100000000000000000000007C3
:10142300C0001FF00012300022180022080022081A
:10143300003208001E10000E200000000000000013
:10144300200000200800200801FFF803FFF8062011
:1014530008042008042008072000030000000000FF
:1014630000000000000E000E6E001FF30031B100FB
:1014730020B10020B1003191001F13002E1E002067
:101483000E00300000000004000807FFF80FFFF80B
:10149300001008002000002000002008003FF80092
:1014A3001FF80000080000000000000000000020FA
:1014B30008002008002008063FF8063FF80000084F
:1014C3000000080000080000000000000000000009
:1014D30000000000030000030020010020010020A1
:1014E30003063FFE063FFC00000000000000000072
:1014F30000000004000807FFF80FFFF80001880050
:101503000300002FC00038F8002038002008000036
:1015130008000000000000000000040008040008A8
:1015230004000807FFF80FFFF80000080000080098
:101533000008000000000000002008003FF8003F02
:10154300F8001008002000003FF8003FF8001008E2
:10155300002000003FF8003FF800000800000000F2
:101563002008003FF8003FF800100800100000209A
:1015730000002008003FF8001FF8000008000000EA
:101583000000000007C0000FF00018300030080012
:101593002008002008003008001830000FF0000772
:1015A300C0000000000000002001003FFF003FFFDB
:1015B3000010110020090020080020080030380026
:1015C3001FF0000FC00000000000000007C0001F54
:1015D300F00038180020080020080020090010112E
:1015E300001FFF003FFF0000010000000020080073
:1015F3002008002008003FF8003FF800080800100A
:101603000800200800200000300000300000000027
:10161300000000000000000C78001E1800330800D2
:1016230023080021080021880021980030F00038A9
:1016330060000000000000002000002000002000E7
:1016430000FFF003FFF80020080020080020080036
:101653000030000000000000000000002000003FF8
:10166300F0007FF8000018000008000008002010B8
:10167300003FF8007FF000001000000000000000B1
:101683002000003000003C00003F800023F00000F9
:1016930078000070002380003C0000300000200030
:1016A300002000003C00003FE00023F80000E000C1
:1016B3002700003E00003FE00021F80001E0003E6B
:1016C3000000200000000000200800200800383837
:1016D300003E680027800003C8002CF8003838005B
:1016E3002018002008000000000000002000003047
:1016F30003003C01003F830023EC000070002380C3
:10170300003C00002000002000000000000000005A
:1017130000000038080020380020F80023E8002FDC
:1017230088003E0800380800201800007000000000
:1017330000000000000000000000000000000000A6
:1017430008000014001FF7FC300006200002000010
:101753000000000000000000000000000000000086
:10176300000000000000FFFFFF0000000000000079
:101773000000000000000000000000000000200046
:10178300023000061FF7FC001400000800000000F0
:10179300000000000000000000000000000000182E
:1017A3000000600000400000400000200000100026
:1017B300000800000400000400000C0000100000FA
:0417C3000000000022
:08272800900421EFF0A3EDF095
:10273000A3121EB800000001900422E0FF14F0EF85
:102740006020A3E0F8A3E0F9A3E0FAA3E0FB900483
:1027500021E0FFE4FCFDFE121D8F900423121EAC4D
:1027600080D6900423E0FCA3E0FDA3E0FEA3E0FFFD
:012770002246
:042AF400E4FD7F8DF1
:032AF8000228A110
:032B000002292681
:032B030002294C58
:0B2AE900900458E090045EF00227719A
:032B06000227FCA7
:032B090002283867
:1029BB007FB0122B03E4FF122B037F10122B037B30
:0C29CB00017A0079007D007C04022B06DC
:102AAC00122AF4E4FD7F14122AF8E4FD7FAF022A07
:012ABC00F821
:102ABD00122AF4E4FD7F10122AF8E4FD7FAE022AFB
:012ACD00F810
:1028D000E4FFE4FE75F008EEA42400F582E5F03490
:1028E00000F583E5822FF582E43583F583E4F00E6D
:0C28F000EEB480E00FEFB408D90229BB61
:10249A00FF900436A3E0FE90042CE02EFD90042F5A
:0224AA00E0FB55
:1024AC00E490042AF0EFD3947F4003022547ED9487
:1024BC003F4003022547ED131313541FFEC374074B
:1024CC009E900429F0ED5407FEC374079EFE740120
:1024DC00A806088002C333D8FC90042AF0EB9004C1
:1024EC0029602AE0FE75F008EFA42400F582E5F0DF
:1024FC003400F583E5822EF582E43583F583C083C1
:10250C00C082E0FF90042AE0FEEF4E8029E0FE75C9
:10251C00F008EFA42400F582E5F03400F583E582A1
:10252C002EF582E43583F583C083C082E0FF9004EE
:0B253C002AE0F4FEEF5ED082D083F0B6
:012547002271
:0C17C70090042EF0900463E090042FF0DA
:0C17D30090042BEFF0A3EDF0F9A3EBF075
:1017DF00C39FFEE49400900430F0A3CEF0E9FF9095
:1017EF00042EE0C39FFEE49400900432F0A3CEF0E9
:1017FF0078347C047D017BFF7A1779C37E007F04E8
:10180F00121CF7E4FC900432E07002A3E07073C383
:10181F00900430E0648094805031E0FEA3E0FFC379
:10182F00E49FFFE49E900430F0A3EFF090042BE0D0
:10183F00FF90042DE0FEEF6E90042BF0E0FFEE6FB3
:10184F00FE90042DF0EF6E90042BF0900430E0FE2C
:10185F00A3E0FF900434E0FAA3E0FBD39FEE648093
:10186F00F8EA6480984003021C2690042BE02B12A8
:10187F00249A900435E004F070D1900434E004F021
:10188F0080C9900430E07002A3E0600302191BC30B
:10189F00900432E0648094805031E0FEA3E0FFC3F7
:1018AF00E49FFFE49E900432F0A3EFF090042CE04D
:1018BF00FF90042EE0FEEF6E90042CF0E0FFEE6F31
:1018CF00FE90042EF0EF6E90042CF0900432E0FEA8
:1018DF00A3E0FF900436E0FAA3E0FBD39FEE648011
:1018EF00F8EA6480984003021C26900434A3E0FFBA
:1018FF0090042BE02FFFA3E02B1224A6900437E0D7
:10190F0004F070C7900436E004F080BFD390043128
:10191F00E09400900430E0648094804018D39004E9
:10192F0033E09400900432E0648094804007EC44EC
:10193F0001FC021A42D3900431E09400900430E08D
:10194F0064809480402D900432E0FEA3E0FFEE64AB
:10195F00809480501EEC4402FCC3E49FFFE49E90F1
:10196F000432F0A3EFF090042CE025E0FF90042E5A
:10197F00021A3CC3900430E0648094805075C39089
:10198F000432E064809480506AEC4404FC9004308C
:10199F00E0FEA3E0FFC3E49FFFE49E900430F0A3BA
:1019AF00EFF0A3E0FEA3E0FFC3E49FFFE49E9004EB
:1019BF0032F0A3EFF090042BE0FF90042DE0FEEF48
:1019CF006E90042BF0E0FFEE6FFE90042DF0EF6EA3
:1019DF0090042BF0A3E0FF90042EE0FEEF6E900436
:1019EF002CF0E0FFEE6FFE90042EF0EF6E90042CC3
:1019FF00F08040900430E0FEA3E0FFC3EE648094DB
:101A0F00805030900433E09400900432E06480946E
:101A1F00804020EC4408FCE49FFFE49E900430F0EB
:101A2F00A3EFF090042BE025E0FF90042DE0FEC320
:101A3F00EF9EF0900432E0FEA3E0FFC3900431E08C
:101A4F009FEE6480F8900430E0648098505EEC4420
:101A5F0010FC90042DE090043EF090042EE0FF90D7
:101A6F00043FF090042CE0FE90042BE0FDC39E2F6A
:101A7F00FF90042DF0EDF404FDEE2DFE90043EE0FA
:101A8F002EF990042EF090042BE0FBC3EF9BFEE4A5
:101A9F009400900430F0A3CEF090042CE0FFE9C343
:101AAF009FFEE49400900432F0A3CEF0900432E055
:101ABF00FAA3E0FB25E0FEEA33900438F0A3CEF062
:101ACF00900430E0FEA3E0FFC3EB9FFFEA9EFEEF22
:101ADF0025E0FFEE3390043AF0A3EFF0900433E0EB
:101AEF0025E0FF900432E033FE900430E0FAA3E0EB
:101AFF00FBC3EF9BFFEE9A90043CF0A3EFF0900432
:101B0F0034A3E0FF90042BE02F12249A900435E0C9
:101B1F0004F07006900434E004F0900430E0FEA36B
:101B2F00E0FFD3900435E09FEE6480F8900434E03A
:101B3F006480984003021C26C390043CE0648094A8
:101B4F008050059004388011900437E004F070063F
:101B5F00900436E004F090043AE0FEA3E0FF900416
:101B6F003DE02FF090043CE03EF0EC540F24FE607B
:101B7F003524FE600B24FC605C24076003021C15F7
:101B8F00EC30E411900436A3E0FF90042BE02FFF1C
:101B9F009004348066900434A3E0FF90042BE02F70
:101BAF00FF9004368055EC30E411900436A3E0FF2B
:101BBF0090042BE02FFF900434800F900434A3E0A7
:101BCF00FF90042BE02FFF900436A3E0FE90042C2F
:101BDF00E0C39E802EEC30E412900436A3E0FF9019
:101BEF00042BE0C39FFF9004348010900434A3E0D3
:101BFF00FF90042BE0C39FFF900436A3E0FE9004F8
:101C0F002CE02E1224A6900435E004F07006900408
:071C1F0034E004F0021B2970
:011C2600229B
:10267E00900460EDF090045FEFF0900461EBF09049
:10268E000460E0FD1217C790045FE0FF900462E063
:10269E00FD900461E0FB90042EED1217CA90045FCA
:1026AE00E0FBFFA3E0FD900462E01217C790046107
:1026BE00E0FBFF900460E0FD900462E090042EF0D9
:0B26CE00900463E090042FF00217D38B
:0E223D00900441EDF0A3EBF0A3EAF0A3E9F06A
:10224B00EFD3947F400302231C900441E0FE943FA4
:10225B00400302231C900448EFF0A3EEF0900446D9
:10226B00E0FF131313541FFEEF540760047F01802C
:10227B00027F00EE2FFF900445E0FEEF8EF0A4905E
:10228B00044AF0E4A3F090044AE0FFA3E0C39F40AC
:10229B000302231C900442E0FBA3E0FAA3E0F91233
:1022AB001D1DFCE4FAEC30E70F900448E0FFA3E0BF
:1022BB00FD900447E0FB8014900448E0FFA3E0FD91
:1022CB00900447E070047B0180027B001224ACEC8D
:1022DB0025E0FC900449E004F0900441E0FF9004F9
:1022EB0049E0C39FFE900446E0B5060D900449EF0C
:1022FB00F0900448E004F080050AEAB408A79004C3
:10230B0043E475F001121D6390044BE004F00222CC
:01231B009130
:01231C00229E
:07287100900465EDF0A903DE
:10287800AC07ECD399501F900465E0FA900467E028
:10288800FFEAD39F500DAF04AD02A3E0FB1224ACC6
:092898000A80E90C80DC0229BB76
:0C213D00900421EFF0900423EBF0A905C2
:10214900900427E9F0900424E0FF131313541FFEB1
:10215900EF540760047F0180027F00EE2FFF900497
:1021690024E0C313FEEF8EF0A4900428F09004231A
:10217900E024E0F0E4FC900428E0FFECC39F400376
:1021890002223C900424E0FFB40C12900423E07571
:10219900F00CA42403F582E5F03400802EEFB4108E
:1021A90012900423E075F010A42477F582E5F03449
:1021B900048018900424E064187078900423E07572
:1021C900F024A42467F582E5F0340AF583E5822C2E
:1021D900F582E43583F583E493900426F0E4FA90DC
:1021E9000426E030E70E900421E0FFAD01900425BC
:1021F900E0FB8013900421E0FFAD01900425E0701D
:10220900047B0180027B001224AC900426E025E0C7
:10221900F009A3E0FFC3E99FFE900424E0B5060A94
:10222900A907900421E004F080050AEAB408B00C7B
:0322390002217F00
:01223C00227F
:08231D00900415EFF0A3EDF0B0
:10232500E4900420F090041EF090041BE0FF90045C
:102335001EE0FEC39F40030223E9C3EF9E14FD7F09
:102345000A122728A804A905AA06AB07900417E0D6
:10235500FCA3E0FDA3E0FEA3E0FF121E1AE47B0A46
:10236500FAF9F8121E1A90041FEBF0A3E0703E90E4
:10237500041BE014FF90041EE0FEC39F502FA3E052
:10238500702590041CE0FCC3138EF0A4FF90041587
:10239500E02FFFA3E0FD900424ECF090041DE090F5
:1023A5000425F07B2080319004207401F090041CFA
:1023B500E0FEC313FF90041EE0FDEF8DF0A4FF9037
:1023C5000415E02FFFA3E0FD90041FE02430FB90EF
:1023D5000424EEF0A37401F012213D90041EE004E4
:0423E500F002232EB1
:0123E90022D1
:0825EF00900408EFF0A3EDF0E9
:1025F700E4900410F090040AE0FCA3E0FDA3E0FEE1
:10260700A3E0FF900411121EAC900411E0FCA3E0BC
:10261700FDA3E0FEA3E0FFE47B0AFAF9F8121E1A15
:10262700900411121EAC900410E004F0A3E0FCA388
:10263700E0FDA3E0FEA3E0FFEC4D4E4F70CB90040E
:102647000AE0FCA3E0FDA3E0FEA3E0FF900417125D
:102657001EAC900410E090041BF090040EE0900470
:102667001CF090040FE090041DF0900409E0FD9029
:072677000408E0FF02231D2F
:1025480090044CEFF0A3EDF0A3EBF0A3EAF0A3E9BD
:10255800F090044EE0FBA3E0FAA3E0F9121D1DFF82
:10256800D3947E40030225EEEFC394204078900474
:1025780051E0FF13FEC374809EFE90044CE0D39E8E
:102588004006E4F0A3E02FF0900451E0FFC374404C
:102598009FFF90044DE0D39F400AE490044CF0A3C1
:1025A800F01228D090044CE0FFA3E0FDA3E0FBA3C9
:1025B800E0FAA3E0F9121D1DFB900451E0900424F9
:1025C800F0900452E0900425F012213D900451E06F
:1025D800C313FF90044CE02FF090044FE475F00112
:0725E800121D6302255922B8
:032B0C00022A9703
:1023EA00122B0CE4FD7FAE122AF8E4FD7FD5122AE7
:1023FA00F8E4FD7F50122AF8E4FD7FA8122AF8E4D7
:10240A00FD7F3F122AF8E4FD7FD3122AF8E4FDFF8C
:10241A00122AF8E4FD7F40122AF8122AF4E4FD7F1A
:10242A0014122AF8E4FD7F20122AF8E4FD7F011233
:10243A002AF8E4FD7FA1122AF8E4FD7FC0122AF8E7
:10244A00E4FD7FDA122AF8E4FD7F12122AF8E4FD8D
:10245A007F81122AF8E4FD7FEF122AF8E4FD7FD982
:10246A00122AF8E4FD7FF1122AF8E4FD7FDB122A32
:10247A00F8E4FD7F30122AF8E4FD7FA4122AF8E47A
:10248A00FD7FA6122AF8E4FD7FAF122AF80228D0AF
:102A97009004047402F0A37430F07B017A04790483
:052AA7007F01021EE9A1
:1028A100900404EF12297C7F781229A31229D79072
:1028B1000405E060047F408002E4FF1229A312298D
:0F28C100D7900404E0FF1229A31229D7022ACED0
:10292600900471EFF01229807F781229A31229D71B
:102936007F401229A31229D7900471E0FF1229A320
:062946001229D7022ACE7F
:10294C00900404EFF01229807F781229A31229D762
:10295C00E4FF1229A31229D7900404E0FF1229A343
:06296C001229D7022ACE59
:102771009004591229727F781229A31229D7900443
:102781005EE060047F408002E4FF1229A31229D792
:1027910090045C74FFF5F0121D7945F0601590040A
:1027A100591229971229D790045AE475F001121D84
:0627B1006380DD022ACE68
:1027FC009004041229727F781229A31229D77F40E2
:10280C001229A31229D790040774FFF5F0121D7931
:10281C0045F060159004041229971229D7900405ED
:0C282C00E475F001121D6380DD022ACE6D
:102838009004691229727F781229A31229D7E4809B
:102848001C90046C74FFF5F0121D7945F060179028
:102858000469E0FBA3E0FAA3E0F9121D1DFF1229A9
:09286800A31229D780DB022ACE5D
:0E297200EBF0A3EAF0A3E9F0A3ECF0A3EDF084
:10298000D294D2957F017E00122A24C2947F017EC8
:0729900000122A24C2952267
:0F2ACE00C295C294D2950000D29400000000225D
:1029D700E4FFD294D2950030940D0FEFD394FA40D0
:0B29E700F6122ACE7F0122C2957F006D
:0129F20022C2
:102A6900C295C2947F037E00122A0DD2957F037E00
:072A790000122A0DC2952294
:102A8000C295D2947F037E00122A0DD2957F037ED9
:072A900000122A0DC295227D
:0C299700E0FBA3E0FAA3E0F9121D1DFF15
:1029A300E4FEEF339294EF25E0FFD29500000000A0
:0729B300C2950EEEB408EB23
:0129BA0022FA
:0526D90090046EEFF01B
:1026DE00E4900470F0D29490046FF0C2957F037E64
:1026EE0000122A0DD295900470E025E0F03094038C
:1026FE00E004F07F027E00122A0D90046FE004F0D9
:10270E00E0C3940840D590046EE07005122A8080D4
:09271E0003122A69900470E0FF27
:01272700228F
:03000000022ADDF4
:0C2ADD00787FE4F6D8FD7581070227B76A
:101C2700E709F608DFFA8046E709F208DFFA803E9F
:101C370088828C83E709F0A3DFFA8032E309F6088C
:101C4700DFFA8078E309F208DFFA807088828C83F4
:101C5700E309F0A3DFFA806489828A83E0A3F608A8
:101C6700DFFA805889828A83E0A3F208DFFA804C82
:101C770080D280FA80C680D4806980F28033801059
:101C870080A680EA809A80A880DA80E280CA8033C2
:101C970089828A83ECFAE493A3C8C582C8CCC5833A
:101CA700CCF0A3C8C582C8CCC583CCDFE9DEE7800A
:101CB7000D89828A83E493A3F608DFF9ECFAA9F089
:101CC700EDFB2289828A83ECFAE0A3C8C582C8CCDF
:101CD700C583CCF0A3C8C582C8CCC583CCDFEADEF8
:101CE700E880DB89828A83E493A3F208DFF980CC5A
:101CF70088F0EF60010E4E60C388F0ED2402B40453
:101D07000050B9F582EB2402B4040050AF232345F9
:061D17008223901C77738B
:101D1D00BB010689828A83E0225002E722BBFE02C4
:091D2D00E32289828A83E49322F7
:101D3600BB010CE58229F582E5833AF583E0225062
:101D460006E92582F8E622BBFE06E92582F8E222AC
:0D1D5600E58229F582E5833AF583E49322C6
:101D6300C5F0F8A3E028F0C5F0F8E582158270020B
:061D73001583E038F022A8
:101D7900A3F8E0C5F025F0F0E5821582700215831D
:061D8900E0C838F0E8227A
:101D8F00E88FF0A4CC8BF0A42CFCE98EF0A42CFCF3
:101D9F008AF0EDA42CFCEA8EF0A4CDA8F08BF0A471
:101DAF002DCC3825F0FDE98FF0A42CCD35F0FCEBD0
:101DBF008EF0A4FEA9F0EB8FF0A4CFC5F02ECD3995
:0F1DCF00FEE43CFCEAA42DCE35F0FDE43CFC2202
:101DDE0075F008758200EF2FFFEE33FECD33CDCCBC
:101DEE0033CCC58233C5829BED9AEC99E58298403F
:101DFE000CF582EE9BFEED9AFDEC99FC0FD5F0D61C
:101E0E00E4CEFBE4CDFAE4CCF9A88222B800C1B945
:101E1E000059BA002DEC8BF084CFCECDFCE5F0CB83
:101E2E00F97818EF2FFFEE33FEED33FDEC33FCEBBC
:101E3E0033FB10D703994004EB99FB0FD8E5E4F977
:101E4E00FA227818EF2FFFEE33FEED33FDEC33FC64
:101E5E00C933C910D7059BE99A4007EC9BFCE99A58
:101E6E00F90FD8E0E4C9FAE4CCFB2275F010EF2F9D
:101E7E00FFEE33FEED33FDCC33CCC833C810D7079D
:101E8E009BEC9AE899400AED9BFDEC9AFCE899F8D8
:0E1E9E000FD5F0DAE4CDFBE4CCFAE4C8F9226B
:0C1EAC00ECF0A3EDF0A3EEF0A3EFF022A9
:101EB800A8828583F0D083D082121ECF121ECF1243
:101EC8001ECF121ECFE473E493A3C583C5F0C58368
:101ED800C8C582C8F0A3C583C5F0C583C8C582C874
:011EE80022D7
:00000001FF
