:04001E007F4EDFFE34
:0100220022BB
:103A3E007D027C00ED1D70011C144C70F7EF1F70A1
:063A4E00011E144E70EA97
:013A5400224F
:103A55007D0B7C00ED1D70011C144C70F7EF1F7081
:063A6500011E144E70EA80
:013A6B002238
:103A6C007D167C00ED1D70011C144C70F7EF1F705F
:063A7C00011E144E70EA69
:013A82002221
:103A83007DA37C08ED1D70011C144C70F7EF1F70B3
:063A9300011E144E70EA52
:013A9900220A
:1027B100EFD394077480948040037F0122121DE0BF
:1027C100FED394037480948040037F0222EF70440F
:1027D100EE700B900001121DF9F452935294121DE8
:1027E100E06401700B900001121DF94293F45294C0
:1027F100121DE0FE6402700A900001121DF942935D
:102801004294EE6403700D900001121DF9FEF45222
:1028110093EE4294EF64017046121DE0FE700B903E
:102821000001121DF9F452915292EE6401700B9065
:102831000001121DF94291F45292121DE0640270DE
:102841000A900001121DF942914292121DE06403A7
:10285100700D900001121DF9FEF45291EE4292EFBB
:1028610064027046121DE0FE700B900001121DF90A
:10287100F452955296EE6401700B900001121DF90D
:102881004295F45296121DE06402700A9000011202
:102891001DF942954296121DE06403700D900001EE
:1028A100121DF9FEF45295EE4296EF640370461242
:1028B1001DE0FE700B900001121DF9F452B152B2ED
:1028C100EE6401700B900001121DF942B1F452B295
:1028D100121DE06402700A900001121DF942B1421A
:1028E100B2121DE06403700D900001121DF9FEF497
:1028F10052B1EE42B2EF64047046121DE0FE700B5D
:10290100900001121DF9F452B352B4EE6401700B40
:10291100900001121DF942B3F452B4121DE0640299
:10292100700A900001121DF942B342B4121DE06415
:1029310003700D900001121DF9FEF452B3EE42B482
:10294100EF64057046121DE0FE700B900001121D30
:10295100F9F452C952CAEE6401700B900001121DC4
:10296100F942C9F452CA121DE06402700A900001D2
:10297100121DF942C942CA121DE06403700D900094
:1029810001121DF9FEF452C9EE42CAEF6406704607
:10299100121DE0FE700B900001121DF9F452CB5292
:1029A100CCEE6401700B900001121DF942CBF45280
:1029B100CC121DE06402700A900001121DF942CB95
:1029C10042CC121DE06403700D900001121DF9FE4E
:1029D100F452CBEE42CCEF64077049121DE0FF7E4A
:1029E10000700B900001121DF9F452E152E2EF6404
:1029F100014E700B900001121DF942E1F452E212F6
:102A01001DE06402700A900001121DF942E142E2E8
:102A1100121DE06403700D900001121DF9FFF452C4
:072A2100E1EF42E27F002219
:03001B000200964A
:03009600B2EE3295
:0300630002009EFA
:03009E00B2ED328E
:03009B00023B9293
:033B9200B2EC3260
:0300A300023B9588
:033B9500B2EB325E
:10248000AD07EDD394047480948040037F0122ED66
:102490006003022555C28C900002121DF964017080
:1024A00004D2A98002C2A9900001121DF9FED394A2
:1024B000037480948040037F0222EEFF7E0070054B
:1024C00053B7FDC2B9EF64014E700553B7FDD2B9E1
:1024D000EF64024E700543B702C2B9EF64034E7059
:1024E0000543B702D2B9121DE0FEC3940374809471
:1024F0008040037F0222E58954FC4EF58990000359
:10250000121DF9FF7E0064017003538E7FEF4E7041
:1025100003438E80EF64024E7005438904800353A9
:1025200089FB900004121DF964017005438F01803E
:1025300003538FFE900005121EB9E5F0F58C900054
:1025400005121EB9F58A900007121DF96401700288
:10255000D28C7F0022ED64016003022622C28E909D
:102560000002121DF964017004D2AB8002C2AB906C
:102570000001121DF9FED394037480948040037F00
:102580000222EEFF7E00700553B7F7C2BBEF640175
:102590004E700553B7F7D2BBEF64024E700543B7D8
:1025A00008C2BBEF64034E700543B708D2BB121DCF
:1025B000E0FEC394037480948040037F0222EEC443
:1025C00054F0FFE58954CF4FF589900003121DF9AF
:1025D000FF7E0064017003538EBFEF4E7003438E85
:1025E00040EF64024E700543894080035389BF90D9
:1025F0000004121DF964017005438F028003538F9C
:10260000FD900005121EB9E5F0F58D900005121E33
:10261000B9F58B900007121DF964017002D28E7F0C
:102620000022ED6402707C538EEF900002121DF9BF
:102630006401700543AF04800353AFFB90000312A5
:102640001DF9FED394027480948040037F0222EE31
:10265000FF7E0064017003538EFBEF4E7003438EC8
:1026600004EF64024E7005438E088003538EF7908A
:102670000004121DF964017005438F048003538F19
:10268000FB900005121EB9E5F0F5D6900005121E6C
:10269000B9F5D7900007121DF964017003438E103D
:1026A0007F0022ED6403707C53D1F7900002121D6D
:1026B000F96401700543AF20800353AFDF9000033E
:1026C000121DF9FED394027480948040037F02228D
:1026D000EEFF7E006401700353D1FDEF4E700343A3
:1026E000D102EF64024E700543D104800353D1FB45
:1026F000900004121DF96401700543D10180035359
:10270000D1FE900005121EB9E5F0F5D49000051237
:102710001EB9F5D5900007121DF96401700343D16D
:10272000087F0022ED640460030227AE53D17F903E
:102730000002121DF96401700543AF40800353AFDE
:10274000BF900003121DF9FD7C00D39402748094A5
:102750008040037F0222ED64014C700353D1DF906F
:102760000003121DF9700343D120900003121DF9DC
:102770006402700543D140800353D1BF900004121E
:102780001DF96401700543D110800353D1EF90000F
:1027900005121EB9FDACF0ECF5D2AF058FD3900059
:1027A00007121DF96401700343D1807F00227F026C
:0127B0002206
:102D7E0043BA80900002121DF96401704290FE80E9
:102D8E00E04440F090FE82E4F0900003121DF990B2
:102D9E00FE817006E0547FF08004E04480F0121D46
:102DAE00E0543FFF90FE80E054C04FF090000412BC
:102DBE001DF9640190FE887003022E59022E539065
:102DCE00FE80E054BFF090FE84E4F0900005121DEA
:102DDE00F9640190FE837006E04440F08004E054F4
:102DEE00BFF0900006121DF9640190FE837006E09C
:102DFE004420F08004E054DFF0900007121DF964C7
:102E0E000190FE837006E04410F08004E054EFF071
:102E1E00900008121DF9640190FE837006E04408CC
:102E2E00F08004E054F7F0900009121DF925E0FF40
:102E3E0090FE85E054014FF090000A121DF96401D6
:102E4E0090FE857006E054FEF08004E04401F090A0
:102E5E00000B121DF9FFE5BA54CF4FF5BA900001E1
:102E6E00121DF990FE807006E0547FF08004E0445D
:062E7E0080F053BA7F2230
:0C000E0090FE82E030E6F9E054BFF022E2
:093B800090FE817401F002000EB8
:0E3B3F0090FE86EFF090FE817402F002000E00
:033B6900123B3FCD
:093B6C0090FE817403F002000ECA
:0F3AD60090FE817404F012000E90FE87E0FF2234
:0E3B4D0090FE82E4F090FE817405F002000EFE
:0F3AE50090FE827401F090FE817405F002000ED5
:093B890090FE817406F002000EAA
:10380500AE0743BA80123B807FA2123B69AF061216
:103815003B69123B807FA3123B3F123B6C123AD6A9
:10382500EF121E59740129F9E43AFA900602E06490
:10383500016003123B4D900602E014F070DF123A6E
:08384500E5123B8953BA7F2212
:0300C300023AB04E
:073AB000C0D075D000C00773
:073AB700AFBA43BA808FBAD9
:053ABE00D007D0D0325A
:0B2A2800900593EBF0A3EAF0A3E9F0A7
:102A3300EF64016003022C6B90040004F0E4A3F044
:102A4300A3F0A3F0A3F0A3F0A3F0FFEFC39480746B
:102A5300809480500F74872FF582E43404F583E467
:102A6300F00F80E7E4FFEFC3948074809480500FED
:102A730074072FF582E43404F583E4F00F80E790C4
:102A83000593E0FBA3E0FAA3E0F990000A121DF915
:102A9300FD7C00D394037480948040037F0222ED75
:102AA3004C700553B7EFC2BC900593E0FBA3E0FA6B
:102AB300A3E0F990000A121DF96401700553B7EF02
:102AC300D2BC90000A121DF9FF7E00640270054318
:102AD300B710C2BCEF64034E700543B710D2BC12EB
:102AE3001DE0FD7C00D394C07480948040037F027A
:102AF30022121DE0FFE598543F4FF598ED64C04C5A
:102B03006008EF64406003022BEE90000212203253
:102B13007F007E607D547C00121F7C9005961220FE
:102B230062E4FFFE7D01FC900596E0F8A3E0F9A3C3
:102B3300E0FAA3E0FBC312200E40037F02229005BC
:102B430096E0F8A3E0F9A3E0FAA3E0FBC3E49BFF5C
:102B5300E49AFE740199FDE498FC900596122062B4
:102B6300900593E0FBA3E0FAA3E0F9900001121DA6
:102B7300F9FB7A0064017038C28E538EFE5389BF0D
:102B83005389CF438E40900596E0FCA3E0FDA3E07C
:102B9300FEA3E0FF780812201F8F8D900596A3A354
:102BA300A3E0F58BC2AB5389BF538FFDD28E807ADE
:102BB300EB64024A7032538EEF438E01538EF74318
:102BC3008E04900596E0FCA3E0FDA3E0FEA3E0FFE6
:102BD300780812201F8FD6900596A3A3A3E0F5D7FC
:102BE30053AFFB438E1080427F0222900593E0FB9C
:102BF300A3E0FAA3E0F9121DE0FF7E007014900039
:102C030008121DF964017005438E20801D538EDF69
:102C13008018EF64804E7012900008121DF9640151
:102C23007005438780800353877F900593E0FBA360
:102C3300E0FAA3E0F9900009121DF964017004D2CF
:102C4300AC8002C2AC900007121DF964017004D27B
:102C53009C8002C29C90000B121DF954C0FFE5A298
:0A2C6300543F4FF5A27F00227F02CC
:012C6D002244
:10396A00900402E02487F582E43404F583EFF090B2
:10397A000402E004F0C39480748094804002E4F06E
:0B398A00900403E0700404F0D29922C6
:103AC300121DE0FF600C12396A740129F9E43AFA15
:033AD30080EE2260
:0C393E004405EE000000004205EC000013
:10399500E4900587F0A304F0A3F0E4A3F0A3F0A35B
:1039A50074A9F0A3749AF0A37401F07B017A0579E8
:0939B50087E4FF122480EF70F298
:0139BE0022E6
:033B98000239955A
:03000B000230417F
:10304100C0E0C0F0C083C082C0D075D000C000C055
:0D30510001C002C003C004C005C006C007D6
:10305E009005EDE004F070069005ECE004F0C390EE
:10306E0005EDE094E89005ECE09403406CE4F0A3E9
:10307E00F0A3E0FCA3E0FDA3E0FEA3E02401FFE447
:10308E003EFEE43DFDE43CFC9005EE122062900510
:10309E00EEE0FCA3E0FDA3E0FEA3E0FFEC4D4E4FFF
:1030AE00602D9005EEE0F8A3E0F9A3E0FAA3E0FBB3
:1030BE009005DBE0FCA3E0FDA3E0FEA3E0FF121F02
:1030CE007C9005E01220629005DF7401F0800A907A
:0930DE0005DB12206E0000000069
:1030E700D007D006D005D004D003D002D001D0003D
:0B30F700D0D0D082D083D0F0D0E032E7
:103A9A009005887430F0E4900587F07B017A057907
:063AAA00877F020227B134
:1039BF009005897401F0900588F0E490058BF090E4
:1039CF00058AF0900587F09005927410F07B017ACC
:0639DF00057987022D7E30
:06000300123A9A0239BF17
:10384D00900612EFF0A3EDF043BA80123B807F7823
:10385D00123B3F123B6C900613E060047F408002E8
:10386D00E4FF123B3F123B6C900612E0FF123B3F10
:0A387D00123B6C123B8953BA7F2204
:1038B700900614EFF043BA80123B807F78123B3FAB
:1038C700123B6C7F40123B3F123B6C900614E0FFAB
:0D38D700123B3F123B6C123B8953BA7F221B
:1038E40090058EEFF043BA80123B807F78123B3F05
:1038F400123B6CE4FF123B3F123B6C90058EE0FFE1
:0D390400123B3F123B6C123B8953BA7F22ED
:103659009005F2EBF0A3EAF0A3E9F0A3ECF0A3EDF7
:10366900F043BA80123B807F78123B3F123B6C904B
:1036790005F7E060047F408002E4FF123B3F8025AC
:103689009005F574FFF5F0121EA345F0601C900536
:10369900F2E0FBA3E475F001121EA3A9F0FA121DD2
:1036A900E0FF123B3F123B6C80D6123B8953BA7F35
:0136B90022EE
:1037150090058EEBF0A3EAF0A3E9F0A3ECF0A3ED9E
:10372500F043BA80123B807F78123B3F123B6C7F9F
:1037350040802290059174FFF5F0121EA345F060BC
:103745001C90058EE0FBA3E475F001121EA3A9F001
:10375500FA121DE0FF123B3F123B6C80D6123B89EB
:0437650053BA7F22B2
:10376900900603EBF0A3EAF0A3E9F0A3ECF0A3EDD4
:10377900F043BA80123B807F78123B3F123B6CE4E6
:10378900802190060674FFF5F0121EA345F0601C17
:10379900900603E0FBA3E475F001121EA3A9F0FA59
:1037A900121DE0FF123B3F123B6C80D6123B89533E
:0337B900BA7F22B2
:1039E5000D0A5354433848384B3634552055415207
:1039F500543120546573742050726F6772616D6D18
:053A050065210D0A001F
:10394A004305E40104004205E904874205E7040748
:04395A004105EB0038
:0E3B5B009005AFEFF0123B9B9005AFE0FF220C
:103A0A00A2B172B0E433900588F0E4900587F07BA8
:0A3A1A00017A0579877F030227B1C6
:100066009005877440F0A37401F0A312206E00017E
:10007600C200E490058DF0A304F0E4A3F0A304F01D
:10008600E4A3F0A3F07B017A0579877F01022A2891
:0F3AF400123A0A1200667BFF7A3979E5022186C1
:033B9B0002396A82
:033B9E00023AC325
:1034C5009005E4E0FBA3E0FAA3E0F9900005121DE6
:1034D500F9D3940074809480406C90000574FF12B9
:1034E5001E267062900004121DF9FFD394007480AB
:1034F500948040529005EBEFF0E4900615F09005AE
:10350500E4E0FBA3E0FAA3E0F9900004121DF9FF43
:10351500900615E0FEC39F501B9005E7E0FCA3E075
:103525002EF582E43CF583E0FF123B9B900615E007
:1035350004F080CA9005E4E0FBA3E0FAA3E0F9906B
:063545000004E4121E6BFD
:01354B00225D
:0300230002354C57
:10354C00C0E0C083C082C0D075D000C006C00730B8
:10355C009831C298900406E07029900404E0C3945A
:10356C0080748094804002E4F0900404E0FF04F046
:10357C0074072FF582E43404F583E599F090040583
:10358C007405F0309934C299900402E0FF90040164
:10359C00E0FE6F602074872EF582E43404F583E03E
:1035AC00F599900401E004F0C394807480948040F9
:1035BC0009E4F08005900403E4F0D007D006D0D0E5
:0735CC00D082D083D0E03271
:0F3B0300123A241235D3123AF4123B98D2AF2261
:10343A00123B031239111200A69005DBE0FCA3E04F
:10344A00FDA3E0FEA3E02401FFE43EFEE43DFDE42B
:10345A003CFC9005DB1220629005DFE06401702AD3
:10346A009005E0E0FCA3E0FDA3E0FEA3E0FF9005E9
:10347A008912206290058D7410F0A37401F07D10FA
:10348A007F1012331FE49005DFF09005DFE070250E
:10349A009005DBE0FCA3E0FDA3E0FEA3E0FF9005BE
:1034AA008912206290058D7410F0A37401F0E4FD76
:0B34BA007F3012331F1200A6023443C3
:103A24009005877403F0A37460F07B017A057987AD
:093A34007F041227B1D2C5D2C6ED
:013A3D002266
:0F3B12006672616D653A00663A302020487A008D
:0B395E004105DF004405DB0000000015
:103911007BFF7A3B791290058C7410F0A37401F04F
:10392100E4FDFF1232787BFF7A3B791990058C74A4
:0D39310010F0A37401F07D10E4FF02327865
:1000C600000000000000000000000000000000002A
:1000D6003F400000000000000000300040003000FB
:1000E6004000000009000BC03D000BC03D000900A8
:1000F60018C024407FE0224031800000180024C050
:100106001B000D803240018003801C4027401C806C
:1001160007400040100060000000000000000000E2
:100126000000000000001F8020404020000040200A
:1001360020401F8000000000090006001F80060006
:1001460009000000040004003F80040004000000D1
:100156000010006000000000000000000400040021
:10016600040004000400000000000040000000003D
:1001760000000000002001C006003800400000001A
:100186001F802040204020401F80000000001040BB
:100196003FC000400000000018C02140224024401B
:1001A6001840000010802040244024401B8000009E
:1001B60002000D0011003FC0014000003C802440B9
:1001C60024402440238000001F80244024403440E3
:1001D600038000003000200027C038002000000007
:1001E6001B802440244024401B8000001C0022C0A9
:1001F600224022401F80000000000000084000004E
:100206000000000000000000046000000000000084
:10021600000004000A001100208040400900090087
:10022600090009000900000000004040208011007C
:100236000A000400180020002340240018000000D3
:100246001F802040274029401F400000004007C073
:1002560039000F0001C0004020403FC02440244028
:100266001B8000001F80204020402040308000007E
:1002760020403FC0204020401F80000020403FC05B
:1002860024402E4030C0000020403FC024402E00B5
:10029600300000000F001080204022403380020012
:1002A60020403FC0040004003FC0204020402040C2
:1002B6003FC02040204000000060202020203FC09A
:1002C6002000200020403FC024400B0030C02040CA
:1002D60020403FC020400040004000C03FC03C00DE
:1002E60003C03C003FC0000020403FC00C4023003C
:1002F6003FC020001F802040204020401F8000007B
:1003060020403FC024402400180000001F802140E8
:10031600214020E01FA0000020403FC024402600CE
:1003260019C0004018C024402440224031800000FB
:10033600300020403FC020403000000020003F80B9
:10034600004000403F80200020003E0001C0070022
:1003560038002000380007C03C0007C03800000005
:10036600204039C0060039C0204000002000384037
:1003760007C0384020000000304021C026403840E9
:1003860020C00000000000007FE040204020000068
:10039600000070000C0003800040000000004020B8
:1003A60040207FE000000000000020004000200008
:1003B60000000000001000100010001000100010D7
:1003C6000000000040000000000000000000028065
:1003D6000540054003C0004020003FC004400440E3
:1003E6000380000000000380044004400640000033
:1003F60000000380044024403FC00040000003800A
:100406000540054003400000000004401FC0244092
:1004160024402000000002E005500550065004204C
:1004260020403FC00440040003C0004000000440D8
:1004360027C000400000000000100010041027E054
:100446000000000020403FC00140070004C00440F7
:10045600204020403FC000400040000007C004008C
:1004660007C0040003C00000044007C004400400A5
:1004760003C00040000003800440044003800000E5
:10048600041007F0045004400380000000000380BD
:100496000440045007F00010044007C00240040066
:1004A60004000000000006400540054004C00000AE
:1004B600000004001F800440004000000400078084
:1004C6000040044007C000400400070004C001804B
:1004D60006000400060001C0070001C00600000077
:1004E600044006C0010006C00440000004100710C6
:1004F60004E00180060004000000044005C0064038
:10050600044000000000000004007BE040200000E2
:10051600000000000000FFF0000000000000402086
:100526007BE0040000000000400080004000200046
:100536002000400000000000000000000000000055
:10054600000000000000000000001FCC000C0000AE
:1005560000000000000008003000600008003000C5
:1005660060000000022003FC1E20022003FC1E2067
:100576000220000000000E1811043FFF10840C78C2
:10058600000000000F0010840F3800C007781884A0
:100596000078000000780F8410C411240E9800E43F
:1005A60000840008080068007000000000000000D9
:1005B6000000000000000000000007E018182004FA
:1005C60040020000000040022004181807E0000066
:1005D600000000000240024001800FF0018002404E
:1005E600024000000080008000800FF8008000803C
:1005F600008000000001000D000E00000000000059
:100606000000000000000080008000800080008064
:10061600008000800000000C000C000000000000BC
:1006260000000000000000060018006001800600BF
:1006360018002000000007F008081004100408083D
:1006460007F000000000080408041FFC0004000472
:100656000000000000000E0C101410241044118439
:100666000E0C000000000C1810041104110412886E
:100676000C700000000000E00320042408241FFC86
:100686000024000000001F98108411041104108833
:1006960010700000000007F0088811041104188883
:1006A6000070000000001C00100010FC13001C006D
:1006B6001000000000000E3811441084108411440C
:1006C6000E38000000000700088C1044104408880B
:1006D60007F00000000000000000030C030C0000FF
:1006E60000000000000000000001010600000000FC
:1006F60000000000000000800140022004100808ED
:100706001004000002200220022002200220022003
:100716000220000000001004080804100220014016
:100726000080000000000E001200100C106C1080FB
:100736000F00000003E00C1813E4142417C4082863
:1007460007D000000004003C03C41C40074000E43E
:10075600001C000410041FFC1104110411040E886F
:100766000070000003E00C181004100410041008B8
:100776001C10000010041FFC1004100410040808CC
:1007860007F0000010041FFC1104110417C4100424
:100796000818000010041FFC1104110017C01000F7
:1007A6000800000003E00C181004100410441C7824
:1007B6000040000010041FFC10840080008010849C
:1007C6001FFC10040000100410041FFC1004100489
:1007D6000000000000030001100110011FFE1000C0
:1007E6001000000010041FFC110403801464181C80
:1007F6001004000010041FFC100400040004000490
:10080600000C000010041FFC1F0000FC1F001FFC52
:100816001004000010041FFC0C04030000E0101874
:100826001FFC100007F00808100410041004080844
:1008360007F0000010041FFC108410801080108048
:100846000F00000007F0081810241024101C080AD6
:1008560007F2000010041FFC1104110011C0113032
:100866000E0C000400000E1C1104108410841044A9
:100876001C3800001800100010041FFC10041000A3
:100886001800000010001FF81004000400041004F3
:100896001FF8100010001E0011E0001C00701380ED
:1008A6001C0010001FC0103C00E01F0000E0103CC0
:1008B6001FC000001004180C163401C001C0163405
:1008C600180C100410001C00130400FC13041C0078
:1008D600100000000804101C1064108413041C048B
:1008E600101800000000000000007FFE40024002D9
:1008F60040020000000030000C0003800060001C75
:100906000003000000004002400240027FFE00009B
:1009160000000000000000002000400040004000F1
:10092600200000000001000100010001000100019B
:10093600000100010000400040002000000000000F
:100946000000000000000098012401440144014415
:1009560000FC000410001FFC00880104010400884C
:10096600007000000000007000880104010401040A
:1009760000880000000000700088010401041108CE
:100986001FFC0004000000F8014401440144014436
:1009960000C800000000010401040FFC110411044A
:1009A60011001800000000D601290129012901C9FA
:1009B6000106000010041FFC008401000100010470
:1009C60000FC000400000104190419FC00040004E2
:1009D600000000000000000300010101190119FEDA
:1009E6000000000010041FFC0024004001B4010CAC
:1009F600010400000000100410041FFC00040004A1
:100A060000000000010401FC0104010001FC0104D6
:100A1600010000FC010401FC008401000100010446
:100A260000FC0004000000F80104010401040104B4
:100A360000F80000010101FF00850104010400889F
:100A46000070000000000070008801040104010528
:100A560001FF00010104010401FC008401040100FE
:100A660001800000000000CC01240124012401249F
:100A76000198000000000100010007F801040104CC
:100A860000000000010001F8000400040004010851
:100A960001FC0004010001800170000C00100160DF
:100AA6000180010001F0010C003001C00030010C92
:100AB60001F0010000000104018C00740170018C3A
:100AC60001040000010101810171000E001801609E
:100AD6000180010000000184010C013401440184FD
:100AE600010C0000000000000000000001003EFCB8
:100AF600400240020000000000000000FFFF00006E
:100B0600000000000000400240023EFC0100000020
:100B160000000000000060008000800040004000EF
:100B2600200020000000000000000000000000007F
:100B360000000000000000000000000000000000AF
:100B4600000000000000000000000000000000009F
:100B5600000000000000000F80380FFE380F8038BC
:100B6600000000000000000000000000000000007F
:100B760000000100000600000C00003800003100F3
:100B8600000600000C0000380000300000000000E5
:100B96000000000061800067F807F98000618000AE
:100BA60061800061800061800067F807F98000615C
:100BB6008000000000000000000001C0E003E0F03B
:100BC6000630080418081FFFFE040E080787F00306
:100BD60081E000000000000001F000060C000404A3
:100BE60008060C7001F9C0000E00003BE000EC188E
:100BF600070808040C180003E00000000001E000EC
:100C060007F003F818041C0804170807E1D003C00E
:100C1600E00023B0003C080020080000100000009F
:100C26000000000100003100003200001C0000003E
:100C360000000000000000000000000000000000AE
:100C4600000000000000000000000000000000009E
:100C5600000000007F0001FFC00780F00C001810A4
:100C66000004200002000000000000200002100026
:100C7600040C00180780F001FFC0007F0000000090
:100C8600000000000000000000000000000000005E
:100C96004200006600006600003C0000180003FFEA
:100CA600C0001800003C000066000066000042001C
:100CB600000000000800000800000800000800000E
:100CC600080001FFC0000800000800000800000836
:100CD60000000800000000000001000031000032A2
:100CE60000001C00000000000000000000000000E2
:100CF60000000000000000000000000008000008DE
:100D060000000800000800000800000800000800B5
:100D160000080000080000080000000000000000B5
:100D26000000000038000038000038000000000015
:100D360000000000000000000000000000000000AD
:100D460000000000000600001C000070000180008A
:100D56000E0000380000C0000700001C0000300034
:100D660000000000000000007F8001FFE0038070AB
:100D76000600180400080400080600180380700125
:100D8600FFE0007F8000000000000000000001007E
:100D96000801000801000803FFF807FFF800000833
:100DA600000008000008000000000000000000012C
:100DB600C03802C05804009804011804021804043C
:100DC60018061C1803F81801E0F8000000000000DF
:100DD60000000001C0E003C0F00400080408080495
:100DE600080806180803F41801E7F00001E00000FF
:100DF60000000000000000000300000D00001100CC
:100E060000610000810803010807FFF80FFFF800E2
:100E160001080001080000000000000000E007FCD7
:100E2600D006080806100806100806100806183826
:100E3600060FF00607C000000000000000000000DA
:100E46003F8001FFE00384300208180410080410F4
:100E560008041008071810030FF00007C000000070
:100E660000000000000003C00007000006000006A6
:100E760000F80607F806180006E00007000006005E
:100E86000000000000000001E1E003F7F006341066
:100E9600041808041808040C08040C08061618039D
:100EA600F3F001C1E000000000000000F80003FCC0
:100EB6003003063804020804020804020804041079
:100EC6000308F001FFC0007F0000000000000000E2
:100ED60000000000000000000000000070380070F4
:100EE600380070380000000000000000000000001C
:100EF60000000000000000000000000000000000EC
:100F0600301A00301C000000000000000000000045
:100F160000000000000000000000000800001400AF
:100F260000220000410000808001004002002004F1
:100F36000010080008000000000000002100002149
:100F460000002100002100002100002100002100F6
:100F56000021000021000021000000000000000028
:100F66000000080008040010020020010040008074
:100F7600800041000022000014000008000000006C
:100F860000000003C00004C0000400000800380888
:100F96000F380808380810000C300007E00003C0BE
:100FA60000000000000000003F8000FFE0038070AA
:100FB600020F1006708804C088048308047F880224
:100FC600C09003012000FE40000008000018000148
:100FD600F8003E0801C20007020007E20000FE001A
:100FE600001FC80001F800003800000804000807C8
:100FF600FFF807FFF80408080408080408080408AE
:101006000806180803F41801E7F00001E0000000E4
:10101600000000003F8001FFE0038070020018041A
:1010260000080400080400080400100600200780D9
:10103600C000000004000807FFF807FFF8040008D6
:101046000400080400080400180200100380700160
:10105600FFE0007F8000000004000807FFF807FF9C
:10106600F8040808040808040808040808043E08E8
:1010760004000806001801006000000004000807CC
:10108600FFF807FFF804080804080004080004082D
:1010960000043E000600000600000180000000007B
:1010A600000000003F8001FFE00380700600180486
:1010B60000080402080402080203F00783F0000295
:1010C6000000020004000807FFF807FFF8040808FC
:1010D60000080000080000080000080004080807CF
:1010E600FFF807FFF80400080000000000000400F5
:1010F6000804000804000807FFF807FFF8040008C2
:1011060004000804000800000000000000000000C1
:1011160000060000070000010400010400010400AD
:101126000307FFFE07FFFC040000040000040000A4
:1011360004000807FFF807FFF8040C080018000071
:101146003E0004C7800503C80600F8040038040002
:101156001800000804000807FFF807FFF804000855
:101166000000080000080000080000080000080051
:10117600001800006000000004000807FFF8078060
:101186000807FC00007FC00003F80007C0007800D5
:1011960007800807FFF807FFF8040008040008079F
:1011A600FFF807000803C00000E000003800001E3A
:1011B600000007000001C00400F007FFF80400006B
:1011C600000000007F8001FFE00380700600180425
:1011D600000804000806001803003001FFE0007F45
:1011E6008000000004000807FFF807FFF804040861
:1011F600040400040400040400040400060C0003B4
:10120600F80001F000000000000000007F8001FFF0
:10121600E00380700600880400880400C806003CCD
:1012260003003E01FFE6007F84000000040008077B
:10123600FFF807FFF8040808040800040C00040F70
:1012460000040BC00610F003F03801E008000008A7
:1012560000000001E0F803F030063010041808041E
:101266001808040C08040C080206180207F0078187
:10127600E0000000018000060000040000040000F9
:1012860004000807FFF807FFF8040008040000043C
:10129600000006000001800004000007FFE007FFD1
:1012A600F00400180000080000080000080000080C
:1012B60000000804001007FFE00400000400000618
:1012C600000007E00007FE00041FE00001F8000030
:1012D600380001E0043E0007C000060000040000DC
:1012E60004000007E00007FFC0041FF80007C0075E
:1012F600F80007FF80043FF80007C004F800070065
:101306000004000000000004000806001807C0786A
:1013160005F1C8003E00001F800463E80780F80658
:101326000018040008000000040000060000078002
:101336000007E008047C08001FF80007F8001808FA
:1013460004E0080700000600000400000000000199
:1013560000080600380400F80403E8040F08047CBB
:101366000805F00807C00807001804006000000020
:101376000000000000000000000000000000003F28
:10138600FFFE2000022000022000022000022000B2
:101396000200000000000000000008000007000036
:1013A60000C0000038000006000001C00000300048
:1013B600000E0000010000000000000000002000F8
:1013C600022000022000022000022000023FFFFE51
:1013D6000000000000000000000000000000000007
:1013E600000000000008000010000030000020008F
:1013F600003000001000000800000000000000009F
:1014060000000100000100000100000100000100D1
:1014160000010000010000010000010000010000C1
:101426000100000100000000000000000020000094
:101436002000001000001000000000000000000066
:1014460000000000000000000000000000F000198D
:10145600F8001B18002208002608002408002410A3
:10146600003FF8001FF80000080000180000000404
:10147600000007FFF80FFFF0001818001008002002
:1014860008002008003018001FF0000FC000000000
:101496000000000007C0001FF00018300020080000
:1014A6002008002008003C08001C10000060000016
:1014B600000000000000000007C0001FF000381800
:1014C60000200800200800200804101007FFF80F6D
:1014D600FFF0000010000000000000000000000700
:1014E600C0001FF000123000221800220800220857
:1014F600003208001E10000E200000000000000050
:10150600200000200800200801FFF803FFF806204D
:10151600080420080420080720000300000000003B
:1015260000000000000E000E6E001FF30031B10037
:1015360020B10020B1003191001F13002E1E0020A3
:101546000E00300000000004000807FFF80FFFF847
:10155600001008002000002000002008003FF800CE
:101566001FF8000008000000000000000000002036
:1015760008002008002008063FF8063FF80000088B
:101586000000080000080000000000000000000045
:1015960000000000030000030020010020010020DD
:1015A60003063FFE063FFC000000000000000000AE
:1015B60000000004000807FFF80FFFF8000188008C
:1015C6000300002FC00038F8002038002008000073
:1015D60008000000000000000000040008040008E5
:1015E60004000807FFF80FFFF800000800000800D5
:1015F6000008000000000000002008003FF8003F3F
:10160600F8001008002000003FF8003FF80010081E
:10161600002000003FF8003FF8000008000000002E
:101626002008003FF8003FF80010080010000020D6
:1016360000002008003FF8001FF800000800000026
:101646000000000007C0000FF0001830003008004E
:101656002008002008003008001830000FF00007AE
:10166600C0000000000000002001003FFF003FFF17
:101676000010110020090020080020080030380062
:101686001FF0000FC00000000000000007C0001F90
:10169600F00038180020080020080020090010116A
:1016A600001FFF003FFF00000100000000200800AF
:1016B6002008002008003FF8003FF8000808001046
:1016C6000800200800200000300000300000000064
:1016D600000000000000000C78001E18003308000F
:1016E60023080021080021880021980030F00038E6
:1016F6006000000000000000200000200000200024
:1017060000FFF003FFF80020080020080020080072
:101716000030000000000000000000002000003F34
:10172600F0007FF8000018000008000008002010F4
:10173600003FF8007FF000001000000000000000ED
:101746002000003000003C00003F800023F0000035
:1017560078000070002380003C000030000020006C
:10176600002000003C00003FE00023F80000E000FD
:101776002700003E00003FE00021F80001E0003EA7
:101786000000200000000000200800200800383873
:10179600003E680027800003C8002CF80038380097
:1017A6002018002008000000000000002000003083
:1017B60003003C01003F830023EC000070002380FF
:1017C600003C000020000020000000000000000097
:1017D60000000038080020380020F80023E8002F19
:1017E60088003E080038080020180000700000003D
:1017F60000000000000000000000000000000000E3
:1018060008000014001FF7FC30000620000200004C
:1018160000000000000000000000000000000000C2
:10182600000000000000FFFFFF00000000000000B5
:101836000000000000000000000000000000200082
:10184600023000061FF7FC0014000008000000002C
:10185600000000000000000000000000000000186A
:101866000000600000400000400000200000100062
:10187600000800000400000400000C000010000036
:04188600000000005E
:0837BC009005A0EFF0A3EDF071
:1037C400A312206E000000019005A1E0FF14F0EFA9
:1037D4006020A3E0F8A3E0F9A3E0FAA3E0FB9005DE
:1037E400A0E0FFE4FCFDFE121EF19005A21220628F
:1037F40080D69005A2E0FCA3E0FDA3E0FEA3E0FFD9
:0138040022A1
:033BA10002384D9A
:033BA4000238B72D
:033BA7000238E4FD
:0B3B75009005FDE09005F7F0023659C6
:033BAA00023715CA
:033BAD0002376973
:1000A6007FB0123BA7E4FF123BA77F10123BA77B52
:0C00B600017A0079007D007C04023BAA66
:0F3B21007F8D123BA77F14123BA77FAF023BA7FC
:0F3B30007F8D123BA77F10123BA77FAE023BA7F2
:10002600E4FFEFC3940874809480502DE4FEEEC381
:10003600948074809480501E75F008EEA42400F518
:1000460082E5F03400F583E5822FF582E43583F509
:0C00560083E4F00E80D80F80C90200A6E1
:1031C300FF9005BBA3E0FE9005B1E02EFD9005B492
:0231D300E0FB1F
:1031D500E49005A9F0EFD3947F74809480400302B6
:1031E5003277ED943F748094804003023277ED137B
:1031F5001313541FFEC374079E9005A8F0ED5407E2
:10320500FEC374079EFEF87401088002C333D8FC20
:103215009005A9F0EB9005A8602AE0FE75F008EF8F
:10322500A42400F582E5F03400F583E5822EF582CD
:10323500E43583F583C083C082E0FF9005A9E0FEF5
:10324500EF4E8029E0FE75F008EFA42400F582E535
:10325500F03400F583E5822EF582E43583F583C0ED
:1032650083C082E0FF9005A9E0F4FEEF5ED082D036
:0232750083F0E4
:013277002234
:0C188A009005B3F090060CE09005B4F05F
:0C1896009005B0EFF0A3EDF0F9A3EBF02B
:1018A200C39FFEE494009005B5F0A3CEF0E9FF904B
:1018B20005B3E0C39FFEE494009005B7F0A3CEF019
:1018C20078B97C057D017BFF7A1879867E007F04DA
:1018D200121DBAE4FC9005B7E07002A3E07073C376
:1018E2009005B5E0648094805031E0FEA3E0FFC330
:1018F200E49FFFE49E9005B5F0A3EFF09005B0E001
:10190200FF9005B2E0FEEF6E9005B0F0E0FFEE6FE3
:10191200FE9005B2F0EF6E9005B0F09005B5E0FED6
:10192200A3E0FF9005B9E0FAA3E0FBD39FEE648049
:10193200F8EA6480984003021CE99005B0E02B129B
:1019420031C39005BAE004F070D19005B9E004F01B
:1019520080C99005B5E07002A3E060030219DEC3FE
:101962009005B7E0648094805031E0FEA3E0FFC3AD
:10197200E49FFFE49E9005B7F0A3EFF09005B1E07D
:10198200FF9005B3E0FEEF6E9005B1F0E0FFEE6F61
:10199200FE9005B3F0EF6E9005B1F09005B7E0FE52
:1019A200A3E0FF9005BBE0FAA3E0FBD39FEE6480C7
:1019B200F8EA6480984003021CE99005B9A3E0FFAD
:1019C2009005B0E02FFFA3E02B1231CF9005BCE0D1
:1019D20004F070C79005BBE004F080BFD39005B659
:1019E200E094009005B5E0648094804018D390059F
:1019F200B8E094009005B7E0648094804007EC441E
:101A020001FC021B05D39005B6E094009005B5E0F9
:101A120064809480402D9005B7E0FEA3E0FFEE6461
:101A2200809480501EEC4402FCC3E49FFFE49E902D
:101A320005B7F0A3EFF09005B1E025E0FF9005B304
:101A4200021AFFC39005B5E0648094805075C3907C
:101A520005B7E064809480506AEC4404FC9005B5BC
:101A6200E0FEA3E0FFC3E49FFFE49E9005B5F0A370
:101A7200EFF0A3E0FEA3E0FFC3E49FFFE49E900526
:101A8200B7F0A3EFF09005B0E0FF9005B2E0FEEFF3
:101A92006E9005B0F0E0FFEE6FFE9005B2F0EF6ED3
:101AA2009005B0F0A3E0FF9005B3E0FEEF6E900565
:101AB200B1F0E0FFEE6FFE9005B3F0EF6E9005B16E
:101AC200F080409005B5E0FEA3E0FFC3EE64809491
:101AD2008050309005B8E094009005B7E06480949F
:101AE200804020EC4408FCE49FFFE49E9005B5F0A2
:101AF200A3EFF09005B0E025E0FF9005B2E0FEC351
:101B0200EF9EF09005B7E0FEA3E0FFC39005B6E0BC
:101B12009FEE6480F89005B5E0648098505EEC44D6
:101B220010FC9005B2E09005C3F09005B3E0FF9081
:101B320005C4F09005B1E0FE9005B0E0FDC39E2F14
:101B4200FF9005B2F0EDF404FDEE2DFE9005C3E02A
:101B52002EF99005B3F09005B0E0FBC3EF9BFEE4D5
:101B620094009005B5F0A3CEF09005B1E0FFE9C373
:101B72009FFEE494009005B7F0A3CEF09005B7E085
:101B8200FAA3E0FB25E0FEEA339005BDF0A3CEF018
:101B92009005B5E0FEA3E0FFC3EB9FFFEA9EFEEFD8
:101BA20025E0FFEE339005BFF0A3EFF09005B8E01B
:101BB20025E0FF9005B7E033FE9005B5E0FAA3E01B
:101BC200FBC3EF9BFFEE9A9005C1F0A3EFF09005E7
:101BD200B9A3E0FF9005B0E02F1231C39005BAE03F
:101BE20004F070069005B9E004F09005B5E0FEA39C
:101BF200E0FFD39005BAE09FEE6480F89005B9E06B
:101C02006480984003021CE9C39005C1E06480949B
:101C12008050059005BD80119005BCE004F070066F
:101C22009005BBE004F09005BFE0FEA3E0FF900545
:101C3200C2E02FF09005C1E03EF0EC540F24FE60AC
:101C42003524FE600B24FC605C24076003021CD870
:101C5200EC30E4119005BBA3E0FF9005B0E02FFF4C
:101C62009005B980669005B9A3E0FF9005B0E02F1A
:101C7200FF9005BB8055EC30E4119005BBA3E0FF5B
:101C82009005B0E02FFF9005B9800F9005B9A3E051
:101C9200FF9005B0E02FFF9005BBA3E0FE9005B1D9
:101CA200E0C39E802EEC30E4129005BBA3E0FF90CF
:101CB20005B0E0C39FFF9005B980109005B9A3E07D
:101CC200FF9005B0E0C39FFF9005BBA3E0FE900527
:101CD200B1E02E1231CF9005BAE004F07006900503
:071CE200B9E004F0021BEC65
:011CE90022D8
:1036BA00900609EDF0900608EFF090060AEBF090FC
:1036CA000609E0FD12188A900608E0FF90060BE052
:1036DA00FD90060AE0FB9005B3ED12188D900608DE
:1036EA00E0FBFFA3E0FD90060BE012188A90060AA1
:1036FA00E0FBFF900609E0FD90060BE09005B3F0B1
:0B370A0090060CE09005B4F002189649
:0E2E84009005C6EDF0A3EBF0A3EAF0A3E9F091
:102E9200EFD3947F748094804003022F739005C611
:102EA200E0FE943F748094804003022F739005CD1E
:102EB200EFF0A3EEF09005CBE0FF131313541FFEC7
:102EC200EF540760047F0180027F00EE2FFF900520
:102ED200CAE0FEEF8EF0A49005CFF0E4A3F09005D7
:102EE200CFE0FFA3E0C39F4003022F739005C7E02A
:102EF200FBA3E0FAA3E0F9121DE0FCE4FAEAC394B2
:102F020008748094805057EC30E70F9005CDE0FFB5
:102F1200A3E0FD9005CCE0FB80149005CDE0FFA37B
:102F2200E0FD9005CCE070047B0180027B00123151
:102F3200D5EC25E0FC9005CEE004F09005C6E0FF5C
:102F42009005CEE0C39FFE9005CBE0B5060D90053F
:102F5200CEEFF09005CDE004F080030A809F90054B
:102F6200C8E475F001121E8D9005D0E004F0022E27
:012F7200E07E
:012F7300223B
:0738870090060EEDF0A9030D
:10388E00AC07ECD399501F90060EE0FA900610E0AC
:10389E00FFEAD39F500DAF04AD02A3E0FB1231D56A
:0938AE000A80E90C80DC0200A68E
:0C2C6E009005A0EFF09005A2EBF0A90586
:102C7A009005A6E9F09005A3E0FF131313541FFE75
:102C8A00EF540760047F0180027F00EE2FFF90055A
:102C9A00A3E0C313FEEF8EF0A49005A7F09005A25F
:102CAA00E024E0F0E4FC9005A7E0FFECC39F4003BA
:102CBA00022D7D9005A3E0FF7E00640C7012900542
:102CCA00A2E075F00CA424C6F582E5F03400803346
:102CDA00EF64104E70129005A2E075F010A4243A29
:102CEA00F582E5F03405801B9005A3E064186003C3
:102CFA00022D7D9005A2E075F024A4242AF582E530
:102D0A00F0340BF583E5822CF582E43583F583E410
:102D1A00939005A5F0E4FAEAC3940874809480506D
:102D2A004E9005A5E030E70E9005A0E0FFAD0190BA
:102D3A0005A4E0FB80139005A0E0FFAD019005A477
:102D4A00E070047B0180027B001231D59005A5E07A
:102D5A0025E0F009A3E0FFC3E99FFE9005A3E0B5D3
:102D6A00060AA9079005A0E004F080030A80A80CCF
:032D7A00022CB078
:012D7D002233
:082F7400900594EFF0A3EDF0CD
:102F7C00E490059FF090059DF090059AE0FF900578
:102F8C009DE0FEC39F4003023040C3EF9E14FD7FC3
:102F9C000A1237BCA804A905AA06AB07900596E04F
:102FAC00FCA3E0FDA3E0FEA3E0FF121F7CE47B0A80
:102FBC00FAF9F8121F7C90059EEBF0A3E0703E909E
:102FCC00059AE014FF90059DE0FEC39F502FA3E0EF
:102FDC00702590059BE0FCC3138EF0A4FF90059424
:102FEC00E02FFFA3E0FD9005A3ECF090059CE09092
:102FFC0005A4F07B20803190059F7401F090059B17
:10300C00E0FEC313FF90059DE0FDEF8DF0A4FF9053
:10301C000594E02FFFA3E0FD90059EE02430FB908B
:10302C0005A3EEF0A37401F0122C6E90059DE00444
:04303C00F0022F85EA
:01304000226D
:08331F00900587EFF0A3EDF02B
:10332700E490058FF0900589E0FCA3E0FDA3E0FEA3
:10333700A3E0FF900590122062900590E0FCA3E0C7
:10334700FDA3E0FEA3E0FFE47B0AFAF9F8121F7C75
:1033570090059012206290058FE004F0A3E0FCA393
:10336700E0FDA3E0FEA3E0FFEC4D4E4F70CB9005D0
:1033770089E0FCA3E0FDA3E0FEA3E0FF9005961221
:10338700206290058FE090059AF090058DE09005FA
:103397009BF090058EE090059CF0900588E0FD90ED
:0733A7000587E0FF022F740F
:083102009005D1EFF0A3EDF000
:10310A00E49005DAF09005D3A3A3A3E0FFEF75F0EE
:10311A000A84FF9005DAE004F0EF70F19005D3E03D
:10312A00FCA3E0FDA3E0FEA3E0FF90058912206264
:10313A009005D8E090058DF09005D9E090058EF0C5
:10314A009005D2E0FD9005D1E0FF12331F9005D81B
:10315A00E0FEC313FF9005DAE0FDEF8DF0A4FF90C7
:10316A0005D1E02FFFA3E0FD9005A3EEF09005D96D
:10317A00E09005A4F07B2E122C6E9005D8E0FBC3DC
:10318A0013FF9005DAE0048FF0A4FF9005D1E02F39
:10319A00FFC0079005D7E0FFE4FCFDFE9005891209
:1031AA00206290058DEBF09005D9E090058EF090A5
:0931BA0005D2E0FDD00702331F2D
:10327800900587EFF0A3EDF0A3EBF0A3EAF0A3E944
:10328800F0900589E0FBA3E0FAA3E0F9121DE0FF46
:10329800D3947E400302331EEFC3942040789005F8
:1032A8008CE0FF13FEC374809EFE900587E0D39EDA
:1032B8004006E4F0A3E02FF090058CE0FFC37440D3
:1032C8009FFF900588E0D39F400AE4900587F0A30C
:1032D800F0120026900587E0FFA3E0FDA3E0FBA322
:1032E800E0FAA3E0F9121DE0FB90058CE09005A33D
:1032F800F090058DE09005A4F0122C6E90058CE0FE
:10330800C313FF900587E02FF090058AE475F0015C
:07331800121E8D0232892212
:033BB000023A9A3C
:1035D300123BB01239BF7FAE123BA77FD5123BA778
:1035E3007F50123BA77FA8123BA77F3F123BA77FC9
:1035F300D3123BA7E4FF123BA77F40123BA77F8D6B
:10360300123BA77F14123BA77F20123BA77F011217
:103613003BA77FA1123BA77FC0123BA77FDA123BD8
:10362300A77F12123BA77F81123BA77FEF123BA715
:103633007FD9123BA77FF1123BA77FDB123BA77F0A
:1036430030123BA77FA4123BA77FA6123BA77FAFF5
:06365300123BA702002655
:030000000233AE1A
:0C33AE00787FE4F6D8FD7581210233F52C
:101CEA00E709F608DFFA8046E709F208DFFA803EDC
:101CFA0088828C83E709F0A3DFFA8032E309F608C9
:101D0A00DFFA8078E309F208DFFA807088828C8330
:101D1A00E309F0A3DFFA806489828A83E0A3F608E4
:101D2A00DFFA805889828A83E0A3F208DFFA804CBE
:101D3A0080D280FA80C680D4806980F28033801095
:101D4A0080A680EA809A80A880DA80E280CA8033FE
:101D5A0089828A83ECFAE493A3C8C582C8CCC58376
:101D6A00CCF0A3C8C582C8CCC583CCDFE9DEE78046
:101D7A000D89828A83E493A3F608DFF9ECFAA9F0C5
:101D8A00EDFB2289828A83ECFAE0A3C8C582C8CC1B
:101D9A00C583CCF0A3C8C582C8CCC583CCDFEADE34
:101DAA00E880DB89828A83E493A3F208DFF980CC96
:101DBA0088F0EF60010E4E60C388F0ED2402B4048F
:101DCA000050B9F582EB2402B4040050AF23234536
:061DDA008223901D3A7304
:101DE000BB010689828A83E0225002E722BBFE0201
:091DF000E32289828A83E4932234
:101DF900BB010CE58229F582E5833AF583E022509F
:101E090006E92582F8E622BBFE06E92582F8E222E8
:0D1E1900E58229F582E5833AF583E4932202
:101E2600BB010FF8E58229F582E5833AF583E028C0
:101E3600F0225009C58229F8E58226F622BBFE0962
:101E4600C58229F8E22582F222F8EA2583F583E99C
:031E5600932822AC
:101E5900BB010689828A83F0225002F722BBFE0168
:021E6900F32262
:101E6B00F8BB010DE58229F582E5833AF583E8F0AD
:101E7B00225006E92582C8F622BBFE05E92582C859
:021E8B00F22241
:101E8D00C5F0F8A3E028F0C5F0F8E58215827002E0
:061E9D001583E038F0227D
:101EA300A3F8E0C5F025F0F0E582158270021583F2
:061EB300E0C838F0E8224F
:101EB900BB0110E58229F582E5833AF583E0F5F067
:101EC900A3E0225009E92582F886F008E622BBFE44
:101ED9000AE92582F8E2F5F008E222E5832AF5838A
:081EE900E993F5F0A3E993224F
:101EF100E88FF0A4CC8BF0A42CFCE98EF0A42CFC90
:101F01008AF0EDA42CFCEA8EF0A4CDA8F08BF0A40D
:101F11002DCC3825F0FDE98FF0A42CCD35F0FCEB6C
:101F21008EF0A4FEA9F0EB8FF0A4CFC5F02ECD3931
:0F1F3100FEE43CFCEAA42DCE35F0FDE43CFC229E
:101F400075F008758200EF2FFFEE33FECD33CDCC58
:101F500033CCC58233C5829BED9AEC99E5829840DB
:101F60000CF582EE9BFEED9AFDEC99FC0FD5F0D6B8
:101F7000E4CEFBE4CDFAE4CCF9A88222B800C1B9E2
:101F80000059BA002DEC8BF084CFCECDFCE5F0CB20
:101F9000F97818EF2FFFEE33FEED33FDEC33FCEB59
:101FA00033FB10D703994004EB99FB0FD8E5E4F914
:101FB000FA227818EF2FFFEE33FEED33FDEC33FC01
:101FC000C933C910D7059BE99A4007EC9BFCE99AF5
:101FD000F90FD8E0E4C9FAE4CCFB2275F010EF2F3A
:101FE000FFEE33FEED33FDCC33CCC833C810D7073A
:101FF0009BEC9AE899400AED9BFDEC9AFCE899F875
:0E2000000FD5F0DAE4CDFBE4CCFAE4C8F92207
:10200E00EB9FF5F0EA9E42F0E99D42F0E89C45F028
:01201E00229F
:10201F00E8600FECC313FCED13FDEE13FEEF13FF9F
:03202F00D8F122C3
:10203200BB010DE58229F582E5833AF5830220ACE6
:102042005007E92582F802209FBBFE07E92582F8A6
:102052000220B8E58229F582E5833AF5830220C59C
:0C206200ECF0A3EDF0A3EEF0A3EFF022F1
:10206E00A8828583F0D083D082122085122085121B
:10207E002085122085E473E493A3C583C5F0C58340
:10208E00C8C582C8F0A3C583C5F0C583C8C582C8BC
:01209E00221F
:10211B00E508248AF582E43405F583E0050822906E
:10212B00058730070390058AE475F0011220D5026C
:10213B001DE02000E97F2ED2008018EF540F249071
:10214B00D43440D4FF30040BEF24BFB41A00500337
:10215B002461FFE50960021509050CE50C70020509
:10216B000B30070E900587E475F0011220D5EF02B6
:10217B001E59023B5B7403D2078003E4C207F508C8
:10218B009005871220ECE4F509F50BF50CE50960D9
:10219B00077F2012215E80F5750AFFC201C200C2C3
:1021AB0002C203C205C206C20812212AFF700D30FB
:1021BB0007057F0012216FAF0CAE0B22B4255FC257
:1021CB00D5C20412212AFF24D0B40A00501A75F08C
:1021DB000A780930D50508B6FF0106C6A426F620F5
:1021EB00D5047002D20380D924CFB41A00EF500467
:1021FB00C2E5D204022370D20180C6D20080C0D2C5
:10220B000280BCD2D580BAD20580B47F2012215E69
:10221B002002077401B5090040F112211BFF1221A6
:10222B005E022198D208D206809512211BFB122147
:10223B001BFA12211BF94A4B700679417A247BFF5A
:10224B0020022EE509602A7E008E82758300121D06
:10225B00F960060EEE650A70F0C2D5EBC0E0EAC07D
:10226B00E0E9C0E0EE1223B7D0E0F9D0E0FAD0E01D
:10227B00FB121DE0FF60AAEBC0E0EAC0E0E9C0E0A2
:10228B0012215ED0E02401F9D0E03400FAD0E0FB5B
:10229B00E50A0460DCD50AD980877BFF7A2379B302
:1022AB00D202809C791080027908C206C20880088D
:1022BB00D2D5790A8004790AC2D5E50A047002F5F1
:1022CB000AE4FAFDFEFF12211BFC7B08200113120E
:1022DB00211BFD7B1030000A12211BFE12211BFF5C
:1022EB007B20EC3382D592D55013C3E43000069F8C
:1022FB00FFE49EFEE42001039DFDE49CFCE4CBF88F
:10230B00C201EC700CCFCECDCCE824F8F870F38082
:10231B0017C3EF33FFEE33FEED33FDEC33FCEB3342
:10232B00FB994002FB0FD8E9EB300105F8D0E0C474
:10233B0048B201C0E00AEC4D4E4F78207B0070C2D2
:10234B00EAB50A0040BCC0E01223B9D0F0D0E020BF
:10235B000104C4C0E0C4B201C0F0122147D0F0D5D3
:10236B00F0EB0221981220F522355322AF582206AA
:10237B004C22024222B34F22BB4422BB49221B43B5
:08238B0022C15522A54622A53E
:102393004522A547246150220A2D220E2E22312BDD
:1023A300221223222F20244A2A21CA48000022294C
:1023B3003F3F3F00790AA2D5200314300509B91025
:1023C300020404B9080104A2D52006025001042026
:1023D30002689202B509005034C0E07F203003192F
:1023E3007F30A20272067205500F122410C202C27D
:1023F30006C205C2087F30800F300503E9C0E01232
:10240300215E300503D0E0F9D0E0B509CC300517E3
:102413007F30B9100C12215E7F583004077F78801B
:1024230003B9080312215E3002057F2D02215E7F6E
:10243300202008F87F2B2006F322920280CF286EFB
:10244300756C6C2900D20112211B3001F8C201788E
:102453000930D50108F60221CA2D504349581221EB
:102463001B2403B405004001E490245C9312214F24
:0D247300743A12214FD2037509040222AF02
:1033BA0002343AE493A3F8E493A34003F68001F2BB
:1033CA0008DFF48029E493A3F85407240CC8C33314
:1033DA00C4540F4420C8834004F456800146F6DFE3
:1033EA00E4800B010204081020408090393EE47EFC
:1033FA00019360BCA3FF543F30E509541FFEE493D8
:10340A00A360010ECF54C025E060A840B8E493A39E
:10341A00FAE493A3F8E493A3C8C582C8CAC583CAC9
:10342A00F0A3C8C582C8CAC583CADFE9DEE780BE81
:01396900005D
:0D209F00E6FB08E6F908E6FA08E6CBF822B1
:0C20AC00E0F8A3E0F9A3E0FAA3E0FB22B7
:0D20B800E2FB08E2F908E2FA08E2CBF822A8
:1020C500E493F8740193F9740293FA740393FB2271
:1020D500F8E0FBA3A3E0F925F0F0E5821582700294
:0720E5001583E0FA38F02238
:0920EC00EBF0A3EAF0A3E9F022F5
:1020F500D083D082F8E4937012740193700DA3A37A
:1021050093F8740193F5828883E47374029368608D
:06211500EFA3A3A380DF8D
:00000001FF
